{"project/contracts/AgentRegistry.sol":{"AgentRegistry":{"abi":[{"inputs":[],"stateMutability":"nonpayable","type":"constructor"},{"inputs":[{"internalType":"address","name":"owner","type":"address"}],"name":"OwnableInvalidOwner","type":"error"},{"inputs":[{"internalType":"address","name":"account","type":"address"}],"name":"OwnableUnauthorizedAccount","type":"error"},{"anonymous":false,"inputs":[{"indexed":true,"internalType":"bytes32","name":"agentId","type":"bytes32"}],"name":"AgentActivated","type":"event"},{"anonymous":false,"inputs":[{"indexed":true,"internalType":"bytes32","name":"agentId","type":"bytes32"}],"name":"AgentDeactivated","type":"event"},{"anonymous":false,"inputs":[{"indexed":true,"internalType":"bytes32","name":"agentId","type":"bytes32"},{"indexed":true,"internalType":"address","name":"owner","type":"address"},{"indexed":false,"internalType":"string","name":"name","type":"string"},{"indexed":false,"internalType":"string","name":"strategy","type":"string"},{"indexed":false,"internalType":"uint256","name":"timestamp","type":"uint256"}],"name":"AgentRegistered","type":"event"},{"anonymous":false,"inputs":[{"indexed":true,"internalType":"bytes32","name":"agentId","type":"bytes32"},{"indexed":false,"internalType":"string","name":"name","type":"string"},{"indexed":false,"internalType":"string","name":"strategy","type":"string"}],"name":"AgentUpdated","type":"event"},{"anonymous":false,"inputs":[{"indexed":true,"internalType":"bytes32","name":"agentId","type":"bytes32"},{"indexed":false,"internalType":"uint256","name":"amount","type":"uint256"}],"name":"EarningsRecorded","type":"event"},{"anonymous":false,"inputs":[{"indexed":true,"internalType":"address","name":"previousOwner","type":"address"},{"indexed":true,"internalType":"address","name":"newOwner","type":"address"}],"name":"OwnershipTransferred","type":"event"},{"anonymous":false,"inputs":[{"indexed":true,"internalType":"bytes32","name":"agentId","type":"bytes32"},{"indexed":false,"internalType":"uint256","name":"newReputation","type":"uint256"}],"name":"ReputationUpdated","type":"event"},{"inputs":[{"internalType":"bytes32","name":"agentId","type":"bytes32"}],"name":"activateAgent","outputs":[],"stateMutability":"nonpayable","type":"function"},{"inputs":[{"internalType":"bytes32","name":"","type":"bytes32"}],"name":"agents","outputs":[{"internalType":"address","name":"owner","type":"address"},{"internalType":"bytes32","name":"publicKeyHash","type":"bytes32"},{"internalType":"string","name":"name","type":"string"},{"internalType":"string","name":"strategy","type":"string"},{"internalType":"uint256","name":"maxPositionSize","type":"uint256"},{"internalType":"uint256","name":"reputation","type":"uint256"},{"internalType":"uint256","name":"totalEarnings","type":"uint256"},{"internalType":"uint256","name":"registeredAt","type":"uint256"},{"internalType":"bool","name":"active","type":"bool"}],"stateMutability":"view","type":"function"},{"inputs":[{"internalType":"uint256","name":"","type":"uint256"}],"name":"allAgentIds","outputs":[{"internalType":"bytes32","name":"","type":"bytes32"}],"stateMutability":"view","type":"function"},{"inputs":[{"internalType":"bytes32","name":"agentId","type":"bytes32"}],"name":"deactivateAgent","outputs":[],"stateMutability":"nonpayable","type":"function"},{"inputs":[{"internalType":"bytes32","name":"agentId","type":"bytes32"}],"name":"getAgent","outputs":[{"components":[{"internalType":"address","name":"owner","type":"address"},{"internalType":"bytes32","name":"publicKeyHash","type":"bytes32"},{"internalType":"string","name":"name","type":"string"},{"internalType":"string","name":"strategy","type":"string"},{"internalType":"uint256","name":"maxPositionSize","type":"uint256"},{"internalType":"uint256","name":"reputation","type":"uint256"},{"internalType":"uint256","name":"totalEarnings","type":"uint256"},{"internalType":"uint256","name":"registeredAt","type":"uint256"},{"internalType":"bool","name":"active","type":"bool"}],"internalType":"struct AgentRegistry.Agent","name":"","type":"tuple"}],"stateMutability":"view","type":"function"},{"inputs":[],"name":"getAgentCount","outputs":[{"internalType":"uint256","name":"","type":"uint256"}],"stateMutability":"view","type":"function"},{"inputs":[],"name":"getAllAgentIds","outputs":[{"internalType":"bytes32[]","name":"","type":"bytes32[]"}],"stateMutability":"view","type":"function"},{"inputs":[{"internalType":"address","name":"owner","type":"address"}],"name":"getOwnerAgentCount","outputs":[{"internalType":"uint256","name":"","type":"uint256"}],"stateMutability":"view","type":"function"},{"inputs":[{"internalType":"address","name":"owner","type":"address"}],"name":"getOwnerAgents","outputs":[{"internalType":"bytes32[]","name":"","type":"bytes32[]"}],"stateMutability":"view","type":"function"},{"inputs":[],"name":"owner","outputs":[{"internalType":"address","name":"","type":"address"}],"stateMutability":"view","type":"function"},{"inputs":[{"internalType":"address","name":"","type":"address"},{"internalType":"uint256","name":"","type":"uint256"}],"name":"ownerAgents","outputs":[{"internalType":"bytes32","name":"","type":"bytes32"}],"stateMutability":"view","type":"function"},{"inputs":[{"internalType":"bytes32","name":"agentId","type":"bytes32"},{"internalType":"uint256","name":"amount","type":"uint256"}],"name":"recordEarnings","outputs":[],"stateMutability":"nonpayable","type":"function"},{"inputs":[{"internalType":"bytes32","name":"publicKeyHash","type":"bytes32"},{"internalType":"string","name":"name","type":"string"},{"internalType":"string","name":"strategy","type":"string"},{"internalType":"uint256","name":"maxPositionSize","type":"uint256"}],"name":"registerAgent","outputs":[{"internalType":"bytes32","name":"agentId","type":"bytes32"}],"stateMutability":"payable","type":"function"},{"inputs":[],"name":"registrationFee","outputs":[{"internalType":"uint256","name":"","type":"uint256"}],"stateMutability":"view","type":"function"},{"inputs":[],"name":"renounceOwnership","outputs":[],"stateMutability":"nonpayable","type":"function"},{"inputs":[{"internalType":"uint256","name":"fee","type":"uint256"}],"name":"setRegistrationFee","outputs":[],"stateMutability":"nonpayable","type":"function"},{"inputs":[],"name":"totalAgents","outputs":[{"internalType":"uint256","name":"","type":"uint256"}],"stateMutability":"view","type":"function"},{"inputs":[],"name":"totalValueManaged","outputs":[{"internalType":"uint256","name":"","type":"uint256"}],"stateMutability":"view","type":"function"},{"inputs":[{"internalType":"address","name":"newOwner","type":"address"}],"name":"transferOwnership","outputs":[],"stateMutability":"nonpayable","type":"function"},{"inputs":[{"internalType":"bytes32","name":"agentId","type":"bytes32"},{"internalType":"string","name":"name","type":"string"},{"internalType":"string","name":"strategy","type":"string"},{"internalType":"uint256","name":"maxPositionSize","type":"uint256"}],"name":"updateAgent","outputs":[],"stateMutability":"nonpayable","type":"function"},{"inputs":[{"internalType":"bytes32","name":"agentId","type":"bytes32"},{"internalType":"uint256","name":"points","type":"uint256"},{"internalType":"bool","name":"add","type":"bool"}],"name":"updateReputation","outputs":[],"stateMutability":"nonpayable","type":"function"},{"inputs":[],"name":"withdraw","outputs":[],"stateMutability":"nonpayable","type":"function"}],"evm":{"bytecode":{"linkReferences":{},"object":"60806040525f600455348015610013575f80fd5b50338061003957604051631e4fbdf760e01b81525f600482015260240160405180910390fd5b61004281610048565b50610097565b5f80546001600160a01b038381166001600160a01b0319831681178455604051919092169283917f8be0079c531659141344cd1fd0a4f28419497f9722a3daafe3b4186f6b6457e09190a35050565b6116ef806100a45f395ff3fe608060405260043610610131575f3560e01c80638fbcd1c9116100a8578063b015813b1161006d578063b015813b1461033d578063c320c7271461035c578063c50537121461037b578063d72b656814610390578063e1bf2237146103af578063f2fde38b146103ce575f80fd5b80638fbcd1c91461029757806391cab63e146102cb57806397d3d329146102df57806398be7c8d146102f2578063a6c2af0114610311575f80fd5b8063545878b8116100f9578063545878b8146101eb57806359b5acf31461020057806362febe4f1461021f578063715018a61461023e5780637585840a146102525780638da5cb5b14610271575f80fd5b80631136a5951461013557806314c44e091461015f578063177207db146101825780632e20ee18146101a35780633ccfd60b146101d7575b5f80fd5b348015610140575f80fd5b506101496103ed565b6040516101569190611037565b60405180910390f35b34801561016a575f80fd5b5061017460045481565b604051908152602001610156565b34801561018d575f80fd5b506101a161019c3660046110bf565b610443565b005b3480156101ae575f80fd5b506101c26101bd36600461113b565b610528565b60405161015699989796959493929190611195565b3480156101e2575f80fd5b506101a161068b565b3480156101f6575f80fd5b5061017460065481565b34801561020b575f80fd5b506101a161021a36600461113b565b6106cd565b34801561022a575f80fd5b5061017461023936600461121f565b61073d565b348015610249575f80fd5b506101a1610768565b34801561025d575f80fd5b5061014961026c366004611247565b61077b565b34801561027c575f80fd5b505f546040516001600160a01b039091168152602001610156565b3480156102a2575f80fd5b506101746102b1366004611247565b6001600160a01b03165f9081526002602052604090205490565b3480156102d6575f80fd5b50600554610174565b6101746102ed3660046110bf565b6107e4565b3480156102fd575f80fd5b5061017461030c36600461113b565b610b74565b34801561031c575f80fd5b5061033061032b36600461113b565b610b93565b6040516101569190611267565b348015610348575f80fd5b506101a161035736600461113b565b610d80565b348015610367575f80fd5b506101a161037636600461113b565b610df3565b348015610386575f80fd5b5061017460055481565b34801561039b575f80fd5b506101a16103aa366004611311565b610e00565b3480156103ba575f80fd5b506101a16103c936600461134b565b610ee2565b3480156103d9575f80fd5b506101a16103e8366004611247565b610f82565b6060600380548060200260200160405190810160405280929190818152602001828054801561043957602002820191905f5260205f20905b815481526020019060010190808311610425575b5050505050905090565b5f86815260016020526040902080546001600160a01b031633146104825760405162461bcd60e51b81526004016104799061136b565b60405180910390fd5b5f8160070154116104a55760405162461bcd60e51b815260040161047990611394565b84156104bc57600281016104ba868883611457565b505b82156104d357600381016104d1848683611457565b505b81156104e157600481018290555b867f72b967eb6938044d73732078952fff9580ce9ec98bf5a5cae3b05c05368ac54587878787604051610517949392919061153b565b60405180910390a250505050505050565b600160208190525f91825260409091208054918101546002820180546001600160a01b039094169391929161055c906113d1565b80601f0160208091040260200160405190810160405280929190818152602001828054610588906113d1565b80156105d35780601f106105aa576101008083540402835291602001916105d3565b820191905f5260205f20905b8154815290600101906020018083116105b657829003601f168201915b5050505050908060030180546105e8906113d1565b80601f0160208091040260200160405190810160405280929190818152602001828054610614906113d1565b801561065f5780601f106106365761010080835404028352916020019161065f565b820191905f5260205f20905b81548152906001019060200180831161064257829003601f168201915b505050600484015460058501546006860154600787015460089097015495969295919450925060ff1689565b610693610fbc565b5f80546040516001600160a01b03909116914780156108fc02929091818181858888f193505050501580156106ca573d5f803e3d5ffd5b50565b5f81815260016020526040902080546001600160a01b031633146107035760405162461bcd60e51b81526004016104799061136b565b60088101805460ff1916905560405182907f83fa9a5555770ebb043d9ef83dd2d496875b8a91e0b595e5ce06520ba75187ad905f90a25050565b6002602052815f5260405f208181548110610756575f80fd5b905f5260205f20015f91509150505481565b610770610fbc565b6107795f610fe8565b565b6001600160a01b0381165f908152600260209081526040918290208054835181840281018401909452808452606093928301828280156107d857602002820191905f5260205f20905b8154815260200190600101908083116107c4575b50505050509050919050565b5f6004543410156108375760405162461bcd60e51b815260206004820152601d60248201527f496e73756666696369656e7420726567697374726174696f6e206665650000006044820152606401610479565b846108745760405162461bcd60e51b815260206004820152600d60248201526c13985b59481c995c5d5a5c9959609a1b6044820152606401610479565b5f82116108c35760405162461bcd60e51b815260206004820152601860248201527f4d617820706f736974696f6e206d757374206265203e203000000000000000006044820152606401610479565b6040516bffffffffffffffffffffffff193360601b1660208201526034810188905242605482015260740160408051601f1981840301815291815281516020928301205f81815260019093529120600701549091501561095c5760405162461bcd60e51b81526020600482015260146024820152734167656e7420616c72656164792065786973747360601b6044820152606401610479565b604051806101200160405280336001600160a01b0316815260200188815260200187878080601f0160208091040260200160405190810160405280939291908181526020018383808284375f92019190915250505090825250604080516020601f8801819004810282018101909252868152918101919087908790819084018382808284375f92018290525093855250505060208083018690526101f460408085019190915260608401839052426080850152600160a090940184905285835283825291829020845181546001600160a01b0319166001600160a01b0390911617815590840151928101929092558201516002820190610a5c908261156c565b5060608201516003820190610a71908261156c565b506080820151600482015560a082015160058083019190915560c0830151600683015560e08301516007830155610100909201516008909101805460ff1916911515919091179055335f908152600260209081526040822080546001818101835591845291832090910184905560038054918201815582527fc2575a0e9e593c00f959f8c92f12db2869c3395a3b0502d05e2516446f71f85b0183905581549190610b1b8361163c565b9190505550336001600160a01b0316817f1c52bf7246bd0a1066d20d0f90d5c0ffdef5245b6a5af874936f12ce28fca0b08888888842604051610b62959493929190611654565b60405180910390a39695505050505050565b60038181548110610b83575f80fd5b5f91825260209091200154905081565b610be96040518061012001604052805f6001600160a01b031681526020015f801916815260200160608152602001606081526020015f81526020015f81526020015f81526020015f81526020015f151581525090565b5f8281526001602081815260409283902083516101208101855281546001600160a01b0316815292810154918301919091526002810180549293919291840191610c32906113d1565b80601f0160208091040260200160405190810160405280929190818152602001828054610c5e906113d1565b8015610ca95780601f10610c8057610100808354040283529160200191610ca9565b820191905f5260205f20905b815481529060010190602001808311610c8c57829003601f168201915b50505050508152602001600382018054610cc2906113d1565b80601f0160208091040260200160405190810160405280929190818152602001828054610cee906113d1565b8015610d395780601f10610d1057610100808354040283529160200191610d39565b820191905f5260205f20905b815481529060010190602001808311610d1c57829003601f168201915b50505091835250506004820154602082015260058201546040820152600682015460608201526007820154608082015260089091015460ff16151560a09091015292915050565b5f81815260016020526040902080546001600160a01b03163314610db65760405162461bcd60e51b81526004016104799061136b565b60088101805460ff1916600117905560405182907f70e5706e1150770b99abd8a2491901177ef6c57682e51b6eae4aeeecb1249769905f90a25050565b610dfb610fbc565b600455565b610e08610fbc565b5f8381526001602052604090206007810154610e365760405162461bcd60e51b815260040161047990611394565b8115610e77576103e8838260050154610e4f919061168d565b11610e6957828160050154610e64919061168d565b610e6d565b6103e85b6005820155610e9e565b82816005015411610e88575f610e98565b828160050154610e9891906116a6565b60058201555b837f643d988938d60eb0f25f427e235470754905356536009cff1faf041b0e510b2e8260050154604051610ed491815260200190565b60405180910390a250505050565b610eea610fbc565b5f8281526001602052604090206007810154610f185760405162461bcd60e51b815260040161047990611394565b81816006015f828254610f2b919061168d565b925050819055508160065f828254610f43919061168d565b909155505060405182815283907f14c92dc75a322ebe82bb8a5c8b717f4689a2bbbce09e1ec0b20ace5d6a0f67a59060200160405180910390a2505050565b610f8a610fbc565b6001600160a01b038116610fb357604051631e4fbdf760e01b81525f6004820152602401610479565b6106ca81610fe8565b5f546001600160a01b031633146107795760405163118cdaa760e01b8152336004820152602401610479565b5f80546001600160a01b038381166001600160a01b0319831681178455604051919092169283917f8be0079c531659141344cd1fd0a4f28419497f9722a3daafe3b4186f6b6457e09190a35050565b602080825282518282018190525f9190848201906040850190845b8181101561106e57835183529284019291840191600101611052565b50909695505050505050565b5f8083601f84011261108a575f80fd5b50813567ffffffffffffffff8111156110a1575f80fd5b6020830191508360208285010111156110b8575f80fd5b9250929050565b5f805f805f80608087890312156110d4575f80fd5b86359550602087013567ffffffffffffffff808211156110f2575f80fd5b6110fe8a838b0161107a565b90975095506040890135915080821115611116575f80fd5b5061112389828a0161107a565b979a9699509497949695606090950135949350505050565b5f6020828403121561114b575f80fd5b5035919050565b5f81518084525f5b818110156111765760208185018101518683018201520161115a565b505f602082860101526020601f19601f83011685010191505092915050565b6001600160a01b038a16815260208101899052610120604082018190525f906111c08382018b611152565b905082810360608401526111d4818a611152565b6080840198909852505060a081019490945260c084019290925260e0830152151561010090910152949350505050565b80356001600160a01b038116811461121a575f80fd5b919050565b5f8060408385031215611230575f80fd5b61123983611204565b946020939093013593505050565b5f60208284031215611257575f80fd5b61126082611204565b9392505050565b602081526112816020820183516001600160a01b03169052565b602082015160408201525f60408301516101208060608501526112a8610140850183611152565b91506060850151601f198584030160808601526112c58382611152565b925050608085015160a085015260a085015160c085015260c085015160e085015260e08501516101008181870152808701519150506113078286018215159052565b5090949350505050565b5f805f60608486031215611323575f80fd5b833592506020840135915060408401358015158114611340575f80fd5b809150509250925092565b5f806040838503121561135c575f80fd5b50508035926020909101359150565b6020808252600f908201526e2737ba1030b3b2b73a1037bbb732b960891b604082015260600190565b6020808252600f908201526e1059d95b9d081b9bdd08199bdd5b99608a1b604082015260600190565b634e487b7160e01b5f52604160045260245ffd5b600181811c908216806113e557607f821691505b60208210810361140357634e487b7160e01b5f52602260045260245ffd5b50919050565b601f821115611452575f81815260208120601f850160051c8101602086101561142f5750805b601f850160051c820191505b8181101561144e5782815560010161143b565b5050505b505050565b67ffffffffffffffff83111561146f5761146f6113bd565b6114838361147d83546113d1565b83611409565b5f601f8411600181146114b4575f851561149d5750838201355b5f19600387901b1c1916600186901b17835561150c565b5f83815260209020601f19861690835b828110156114e457868501358255602094850194600190920191016114c4565b5086821015611500575f1960f88860031b161c19848701351681555b505060018560011b0183555b5050505050565b81835281816020850137505f828201602090810191909152601f909101601f19169091010190565b604081525f61154e604083018688611513565b8281036020840152611561818587611513565b979650505050505050565b815167ffffffffffffffff811115611586576115866113bd565b61159a8161159484546113d1565b84611409565b602080601f8311600181146115cd575f84156115b65750858301515b5f19600386901b1c1916600185901b17855561144e565b5f85815260208120601f198616915b828110156115fb578886015182559484019460019091019084016115dc565b508582101561161857878501515f19600388901b60f8161c191681555b5050505050600190811b01905550565b634e487b7160e01b5f52601160045260245ffd5b5f6001820161164d5761164d611628565b5060010190565b606081525f611667606083018789611513565b828103602084015261167a818688611513565b9150508260408301529695505050505050565b808201808211156116a0576116a0611628565b92915050565b818103818111156116a0576116a061162856fea26469706673582212201960c9123da37f8285127c2a3c3f3c05dfae1066f41ef6c5bf331b816e795b7164736f6c63430008140033","opcodes":"PUSH1 0x80 PUSH1 0x40 MSTORE PUSH0 PUSH1 0x4 SSTORE CALLVALUE DUP1 ISZERO PUSH2 0x13 JUMPI PUSH0 DUP1 REVERT JUMPDEST POP CALLER DUP1 PUSH2 0x39 JUMPI PUSH1 0x40 MLOAD PUSH4 0x1E4FBDF7 PUSH1 0xE0 SHL DUP2 MSTORE PUSH0 PUSH1 0x4 DUP3 ADD MSTORE PUSH1 0x24 ADD PUSH1 0x40 MLOAD DUP1 SWAP2 SUB SWAP1 REVERT JUMPDEST PUSH2 0x42 DUP2 PUSH2 0x48 JUMP JUMPDEST POP PUSH2 0x97 JUMP JUMPDEST PUSH0 DUP1 SLOAD PUSH1 0x1 PUSH1 0x1 PUSH1 0xA0 SHL SUB DUP4 DUP2 AND PUSH1 0x1 PUSH1 0x1 PUSH1 0xA0 SHL SUB NOT DUP4 AND DUP2 OR DUP5 SSTORE PUSH1 0x40 MLOAD SWAP2 SWAP1 SWAP3 AND SWAP3 DUP4 SWAP2 PUSH32 0x8BE0079C531659141344CD1FD0A4F28419497F9722A3DAAFE3B4186F6B6457E0 SWAP2 SWAP1 LOG3 POP POP JUMP JUMPDEST PUSH2 0x16EF DUP1 PUSH2 0xA4 PUSH0 CODECOPY PUSH0 RETURN INVALID PUSH1 0x80 PUSH1 0x40 MSTORE PUSH1 0x4 CALLDATASIZE LT PUSH2 0x131 JUMPI PUSH0 CALLDATALOAD PUSH1 0xE0 SHR DUP1 PUSH4 0x8FBCD1C9 GT PUSH2 0xA8 JUMPI DUP1 PUSH4 0xB015813B GT PUSH2 0x6D JUMPI DUP1 PUSH4 0xB015813B EQ PUSH2 0x33D JUMPI DUP1 PUSH4 0xC320C727 EQ PUSH2 0x35C JUMPI DUP1 PUSH4 0xC5053712 EQ PUSH2 0x37B JUMPI DUP1 PUSH4 0xD72B6568 EQ PUSH2 0x390 JUMPI DUP1 PUSH4 0xE1BF2237 EQ PUSH2 0x3AF JUMPI DUP1 PUSH4 0xF2FDE38B EQ PUSH2 0x3CE JUMPI PUSH0 DUP1 REVERT JUMPDEST DUP1 PUSH4 0x8FBCD1C9 EQ PUSH2 0x297 JUMPI DUP1 PUSH4 0x91CAB63E EQ PUSH2 0x2CB JUMPI DUP1 PUSH4 0x97D3D329 EQ PUSH2 0x2DF JUMPI DUP1 PUSH4 0x98BE7C8D EQ PUSH2 0x2F2 JUMPI DUP1 PUSH4 0xA6C2AF01 EQ PUSH2 0x311 JUMPI PUSH0 DUP1 REVERT JUMPDEST DUP1 PUSH4 0x545878B8 GT PUSH2 0xF9 JUMPI DUP1 PUSH4 0x545878B8 EQ PUSH2 0x1EB JUMPI DUP1 PUSH4 0x59B5ACF3 EQ PUSH2 0x200 JUMPI DUP1 PUSH4 0x62FEBE4F EQ PUSH2 0x21F JUMPI DUP1 PUSH4 0x715018A6 EQ PUSH2 0x23E JUMPI DUP1 PUSH4 0x7585840A EQ PUSH2 0x252 JUMPI DUP1 PUSH4 0x8DA5CB5B EQ PUSH2 0x271 JUMPI PUSH0 DUP1 REVERT JUMPDEST DUP1 PUSH4 0x1136A595 EQ PUSH2 0x135 JUMPI DUP1 PUSH4 0x14C44E09 EQ PUSH2 0x15F JUMPI DUP1 PUSH4 0x177207DB EQ PUSH2 0x182 JUMPI DUP1 PUSH4 0x2E20EE18 EQ PUSH2 0x1A3 JUMPI DUP1 PUSH4 0x3CCFD60B EQ PUSH2 0x1D7 JUMPI JUMPDEST PUSH0 DUP1 REVERT JUMPDEST CALLVALUE DUP1 ISZERO PUSH2 0x140 JUMPI PUSH0 DUP1 REVERT JUMPDEST POP PUSH2 0x149 PUSH2 0x3ED JUMP JUMPDEST PUSH1 0x40 MLOAD PUSH2 0x156 SWAP2 SWAP1 PUSH2 0x1037 JUMP JUMPDEST PUSH1 0x40 MLOAD DUP1 SWAP2 SUB SWAP1 RETURN JUMPDEST CALLVALUE DUP1 ISZERO PUSH2 0x16A JUMPI PUSH0 DUP1 REVERT JUMPDEST POP PUSH2 0x174 PUSH1 0x4 SLOAD DUP2 JUMP JUMPDEST PUSH1 0x40 MLOAD SWAP1 DUP2 MSTORE PUSH1 0x20 ADD PUSH2 0x156 JUMP JUMPDEST CALLVALUE DUP1 ISZERO PUSH2 0x18D JUMPI PUSH0 DUP1 REVERT JUMPDEST POP PUSH2 0x1A1 PUSH2 0x19C CALLDATASIZE PUSH1 0x4 PUSH2 0x10BF JUMP JUMPDEST PUSH2 0x443 JUMP JUMPDEST STOP JUMPDEST CALLVALUE DUP1 ISZERO PUSH2 0x1AE JUMPI PUSH0 DUP1 REVERT JUMPDEST POP PUSH2 0x1C2 PUSH2 0x1BD CALLDATASIZE PUSH1 0x4 PUSH2 0x113B JUMP JUMPDEST PUSH2 0x528 JUMP JUMPDEST PUSH1 0x40 MLOAD PUSH2 0x156 SWAP10 SWAP9 SWAP8 SWAP7 SWAP6 SWAP5 SWAP4 SWAP3 SWAP2 SWAP1 PUSH2 0x1195 JUMP JUMPDEST CALLVALUE DUP1 ISZERO PUSH2 0x1E2 JUMPI PUSH0 DUP1 REVERT JUMPDEST POP PUSH2 0x1A1 PUSH2 0x68B JUMP JUMPDEST CALLVALUE DUP1 ISZERO PUSH2 0x1F6 JUMPI PUSH0 DUP1 REVERT JUMPDEST POP PUSH2 0x174 PUSH1 0x6 SLOAD DUP2 JUMP JUMPDEST CALLVALUE DUP1 ISZERO PUSH2 0x20B JUMPI PUSH0 DUP1 REVERT JUMPDEST POP PUSH2 0x1A1 PUSH2 0x21A CALLDATASIZE PUSH1 0x4 PUSH2 0x113B JUMP JUMPDEST PUSH2 0x6CD JUMP JUMPDEST CALLVALUE DUP1 ISZERO PUSH2 0x22A JUMPI PUSH0 DUP1 REVERT JUMPDEST POP PUSH2 0x174 PUSH2 0x239 CALLDATASIZE PUSH1 0x4 PUSH2 0x121F JUMP JUMPDEST PUSH2 0x73D JUMP JUMPDEST CALLVALUE DUP1 ISZERO PUSH2 0x249 JUMPI PUSH0 DUP1 REVERT JUMPDEST POP PUSH2 0x1A1 PUSH2 0x768 JUMP JUMPDEST CALLVALUE DUP1 ISZERO PUSH2 0x25D JUMPI PUSH0 DUP1 REVERT JUMPDEST POP PUSH2 0x149 PUSH2 0x26C CALLDATASIZE PUSH1 0x4 PUSH2 0x1247 JUMP JUMPDEST PUSH2 0x77B JUMP JUMPDEST CALLVALUE DUP1 ISZERO PUSH2 0x27C JUMPI PUSH0 DUP1 REVERT JUMPDEST POP PUSH0 SLOAD PUSH1 0x40 MLOAD PUSH1 0x1 PUSH1 0x1 PUSH1 0xA0 SHL SUB SWAP1 SWAP2 AND DUP2 MSTORE PUSH1 0x20 ADD PUSH2 0x156 JUMP JUMPDEST CALLVALUE DUP1 ISZERO PUSH2 0x2A2 JUMPI PUSH0 DUP1 REVERT JUMPDEST POP PUSH2 0x174 PUSH2 0x2B1 CALLDATASIZE PUSH1 0x4 PUSH2 0x1247 JUMP JUMPDEST PUSH1 0x1 PUSH1 0x1 PUSH1 0xA0 SHL SUB AND PUSH0 SWAP1 DUP2 MSTORE PUSH1 0x2 PUSH1 0x20 MSTORE PUSH1 0x40 SWAP1 KECCAK256 SLOAD SWAP1 JUMP JUMPDEST CALLVALUE DUP1 ISZERO PUSH2 0x2D6 JUMPI PUSH0 DUP1 REVERT JUMPDEST POP PUSH1 0x5 SLOAD PUSH2 0x174 JUMP JUMPDEST PUSH2 0x174 PUSH2 0x2ED CALLDATASIZE PUSH1 0x4 PUSH2 0x10BF JUMP JUMPDEST PUSH2 0x7E4 JUMP JUMPDEST CALLVALUE DUP1 ISZERO PUSH2 0x2FD JUMPI PUSH0 DUP1 REVERT JUMPDEST POP PUSH2 0x174 PUSH2 0x30C CALLDATASIZE PUSH1 0x4 PUSH2 0x113B JUMP JUMPDEST PUSH2 0xB74 JUMP JUMPDEST CALLVALUE DUP1 ISZERO PUSH2 0x31C JUMPI PUSH0 DUP1 REVERT JUMPDEST POP PUSH2 0x330 PUSH2 0x32B CALLDATASIZE PUSH1 0x4 PUSH2 0x113B JUMP JUMPDEST PUSH2 0xB93 JUMP JUMPDEST PUSH1 0x40 MLOAD PUSH2 0x156 SWAP2 SWAP1 PUSH2 0x1267 JUMP JUMPDEST CALLVALUE DUP1 ISZERO PUSH2 0x348 JUMPI PUSH0 DUP1 REVERT JUMPDEST POP PUSH2 0x1A1 PUSH2 0x357 CALLDATASIZE PUSH1 0x4 PUSH2 0x113B JUMP JUMPDEST PUSH2 0xD80 JUMP JUMPDEST CALLVALUE DUP1 ISZERO PUSH2 0x367 JUMPI PUSH0 DUP1 REVERT JUMPDEST POP PUSH2 0x1A1 PUSH2 0x376 CALLDATASIZE PUSH1 0x4 PUSH2 0x113B JUMP JUMPDEST PUSH2 0xDF3 JUMP JUMPDEST CALLVALUE DUP1 ISZERO PUSH2 0x386 JUMPI PUSH0 DUP1 REVERT JUMPDEST POP PUSH2 0x174 PUSH1 0x5 SLOAD DUP2 JUMP JUMPDEST CALLVALUE DUP1 ISZERO PUSH2 0x39B JUMPI PUSH0 DUP1 REVERT JUMPDEST POP PUSH2 0x1A1 PUSH2 0x3AA CALLDATASIZE PUSH1 0x4 PUSH2 0x1311 JUMP JUMPDEST PUSH2 0xE00 JUMP JUMPDEST CALLVALUE DUP1 ISZERO PUSH2 0x3BA JUMPI PUSH0 DUP1 REVERT JUMPDEST POP PUSH2 0x1A1 PUSH2 0x3C9 CALLDATASIZE PUSH1 0x4 PUSH2 0x134B JUMP JUMPDEST PUSH2 0xEE2 JUMP JUMPDEST CALLVALUE DUP1 ISZERO PUSH2 0x3D9 JUMPI PUSH0 DUP1 REVERT JUMPDEST POP PUSH2 0x1A1 PUSH2 0x3E8 CALLDATASIZE PUSH1 0x4 PUSH2 0x1247 JUMP JUMPDEST PUSH2 0xF82 JUMP JUMPDEST PUSH1 0x60 PUSH1 0x3 DUP1 SLOAD DUP1 PUSH1 0x20 MUL PUSH1 0x20 ADD PUSH1 0x40 MLOAD SWAP1 DUP2 ADD PUSH1 0x40 MSTORE DUP1 SWAP3 SWAP2 SWAP1 DUP2 DUP2 MSTORE PUSH1 0x20 ADD DUP3 DUP1 SLOAD DUP1 ISZERO PUSH2 0x439 JUMPI PUSH1 0x20 MUL DUP3 ADD SWAP2 SWAP1 PUSH0 MSTORE PUSH1 0x20 PUSH0 KECCAK256 SWAP1 JUMPDEST DUP2 SLOAD DUP2 MSTORE PUSH1 0x20 ADD SWAP1 PUSH1 0x1 ADD SWAP1 DUP1 DUP4 GT PUSH2 0x425 JUMPI JUMPDEST POP POP POP POP POP SWAP1 POP SWAP1 JUMP JUMPDEST PUSH0 DUP7 DUP2 MSTORE PUSH1 0x1 PUSH1 0x20 MSTORE PUSH1 0x40 SWAP1 KECCAK256 DUP1 SLOAD PUSH1 0x1 PUSH1 0x1 PUSH1 0xA0 SHL SUB AND CALLER EQ PUSH2 0x482 JUMPI PUSH1 0x40 MLOAD PUSH3 0x461BCD PUSH1 0xE5 SHL DUP2 MSTORE PUSH1 0x4 ADD PUSH2 0x479 SWAP1 PUSH2 0x136B JUMP JUMPDEST PUSH1 0x40 MLOAD DUP1 SWAP2 SUB SWAP1 REVERT JUMPDEST PUSH0 DUP2 PUSH1 0x7 ADD SLOAD GT PUSH2 0x4A5 JUMPI PUSH1 0x40 MLOAD PUSH3 0x461BCD PUSH1 0xE5 SHL DUP2 MSTORE PUSH1 0x4 ADD PUSH2 0x479 SWAP1 PUSH2 0x1394 JUMP JUMPDEST DUP5 ISZERO PUSH2 0x4BC JUMPI PUSH1 0x2 DUP2 ADD PUSH2 0x4BA DUP7 DUP9 DUP4 PUSH2 0x1457 JUMP JUMPDEST POP JUMPDEST DUP3 ISZERO PUSH2 0x4D3 JUMPI PUSH1 0x3 DUP2 ADD PUSH2 0x4D1 DUP5 DUP7 DUP4 PUSH2 0x1457 JUMP JUMPDEST POP JUMPDEST DUP2 ISZERO PUSH2 0x4E1 JUMPI PUSH1 0x4 DUP2 ADD DUP3 SWAP1 SSTORE JUMPDEST DUP7 PUSH32 0x72B967EB6938044D73732078952FFF9580CE9EC98BF5A5CAE3B05C05368AC545 DUP8 DUP8 DUP8 DUP8 PUSH1 0x40 MLOAD PUSH2 0x517 SWAP5 SWAP4 SWAP3 SWAP2 SWAP1 PUSH2 0x153B JUMP JUMPDEST PUSH1 0x40 MLOAD DUP1 SWAP2 SUB SWAP1 LOG2 POP POP POP POP POP POP POP JUMP JUMPDEST PUSH1 0x1 PUSH1 0x20 DUP2 SWAP1 MSTORE PUSH0 SWAP2 DUP3 MSTORE PUSH1 0x40 SWAP1 SWAP2 KECCAK256 DUP1 SLOAD SWAP2 DUP2 ADD SLOAD PUSH1 0x2 DUP3 ADD DUP1 SLOAD PUSH1 0x1 PUSH1 0x1 PUSH1 0xA0 SHL SUB SWAP1 SWAP5 AND SWAP4 SWAP2 SWAP3 SWAP2 PUSH2 0x55C SWAP1 PUSH2 0x13D1 JUMP JUMPDEST DUP1 PUSH1 0x1F ADD PUSH1 0x20 DUP1 SWAP2 DIV MUL PUSH1 0x20 ADD PUSH1 0x40 MLOAD SWAP1 DUP2 ADD PUSH1 0x40 MSTORE DUP1 SWAP3 SWAP2 SWAP1 DUP2 DUP2 MSTORE PUSH1 0x20 ADD DUP3 DUP1 SLOAD PUSH2 0x588 SWAP1 PUSH2 0x13D1 JUMP JUMPDEST DUP1 ISZERO PUSH2 0x5D3 JUMPI DUP1 PUSH1 0x1F LT PUSH2 0x5AA JUMPI PUSH2 0x100 DUP1 DUP4 SLOAD DIV MUL DUP4 MSTORE SWAP2 PUSH1 0x20 ADD SWAP2 PUSH2 0x5D3 JUMP JUMPDEST DUP3 ADD SWAP2 SWAP1 PUSH0 MSTORE PUSH1 0x20 PUSH0 KECCAK256 SWAP1 JUMPDEST DUP2 SLOAD DUP2 MSTORE SWAP1 PUSH1 0x1 ADD SWAP1 PUSH1 0x20 ADD DUP1 DUP4 GT PUSH2 0x5B6 JUMPI DUP3 SWAP1 SUB PUSH1 0x1F AND DUP3 ADD SWAP2 JUMPDEST POP POP POP POP POP SWAP1 DUP1 PUSH1 0x3 ADD DUP1 SLOAD PUSH2 0x5E8 SWAP1 PUSH2 0x13D1 JUMP JUMPDEST DUP1 PUSH1 0x1F ADD PUSH1 0x20 DUP1 SWAP2 DIV MUL PUSH1 0x20 ADD PUSH1 0x40 MLOAD SWAP1 DUP2 ADD PUSH1 0x40 MSTORE DUP1 SWAP3 SWAP2 SWAP1 DUP2 DUP2 MSTORE PUSH1 0x20 ADD DUP3 DUP1 SLOAD PUSH2 0x614 SWAP1 PUSH2 0x13D1 JUMP JUMPDEST DUP1 ISZERO PUSH2 0x65F JUMPI DUP1 PUSH1 0x1F LT PUSH2 0x636 JUMPI PUSH2 0x100 DUP1 DUP4 SLOAD DIV MUL DUP4 MSTORE SWAP2 PUSH1 0x20 ADD SWAP2 PUSH2 0x65F JUMP JUMPDEST DUP3 ADD SWAP2 SWAP1 PUSH0 MSTORE PUSH1 0x20 PUSH0 KECCAK256 SWAP1 JUMPDEST DUP2 SLOAD DUP2 MSTORE SWAP1 PUSH1 0x1 ADD SWAP1 PUSH1 0x20 ADD DUP1 DUP4 GT PUSH2 0x642 JUMPI DUP3 SWAP1 SUB PUSH1 0x1F AND DUP3 ADD SWAP2 JUMPDEST POP POP POP PUSH1 0x4 DUP5 ADD SLOAD PUSH1 0x5 DUP6 ADD SLOAD PUSH1 0x6 DUP7 ADD SLOAD PUSH1 0x7 DUP8 ADD SLOAD PUSH1 0x8 SWAP1 SWAP8 ADD SLOAD SWAP6 SWAP7 SWAP3 SWAP6 SWAP2 SWAP5 POP SWAP3 POP PUSH1 0xFF AND DUP10 JUMP JUMPDEST PUSH2 0x693 PUSH2 0xFBC JUMP JUMPDEST PUSH0 DUP1 SLOAD PUSH1 0x40 MLOAD PUSH1 0x1 PUSH1 0x1 PUSH1 0xA0 SHL SUB SWAP1 SWAP2 AND SWAP2 SELFBALANCE DUP1 ISZERO PUSH2 0x8FC MUL SWAP3 SWAP1 SWAP2 DUP2 DUP2 DUP2 DUP6 DUP9 DUP9 CALL SWAP4 POP POP POP POP ISZERO DUP1 ISZERO PUSH2 0x6CA JUMPI RETURNDATASIZE PUSH0 DUP1 RETURNDATACOPY RETURNDATASIZE PUSH0 REVERT JUMPDEST POP JUMP JUMPDEST PUSH0 DUP2 DUP2 MSTORE PUSH1 0x1 PUSH1 0x20 MSTORE PUSH1 0x40 SWAP1 KECCAK256 DUP1 SLOAD PUSH1 0x1 PUSH1 0x1 PUSH1 0xA0 SHL SUB AND CALLER EQ PUSH2 0x703 JUMPI PUSH1 0x40 MLOAD PUSH3 0x461BCD PUSH1 0xE5 SHL DUP2 MSTORE PUSH1 0x4 ADD PUSH2 0x479 SWAP1 PUSH2 0x136B JUMP JUMPDEST PUSH1 0x8 DUP2 ADD DUP1 SLOAD PUSH1 0xFF NOT AND SWAP1 SSTORE PUSH1 0x40 MLOAD DUP3 SWAP1 PUSH32 0x83FA9A5555770EBB043D9EF83DD2D496875B8A91E0B595E5CE06520BA75187AD SWAP1 PUSH0 SWAP1 LOG2 POP POP JUMP JUMPDEST PUSH1 0x2 PUSH1 0x20 MSTORE DUP2 PUSH0 MSTORE PUSH1 0x40 PUSH0 KECCAK256 DUP2 DUP2 SLOAD DUP2 LT PUSH2 0x756 JUMPI PUSH0 DUP1 REVERT JUMPDEST SWAP1 PUSH0 MSTORE PUSH1 0x20 PUSH0 KECCAK256 ADD PUSH0 SWAP2 POP SWAP2 POP POP SLOAD DUP2 JUMP JUMPDEST PUSH2 0x770 PUSH2 0xFBC JUMP JUMPDEST PUSH2 0x779 PUSH0 PUSH2 0xFE8 JUMP JUMPDEST JUMP JUMPDEST PUSH1 0x1 PUSH1 0x1 PUSH1 0xA0 SHL SUB DUP2 AND PUSH0 SWAP1 DUP2 MSTORE PUSH1 0x2 PUSH1 0x20 SWAP1 DUP2 MSTORE PUSH1 0x40 SWAP2 DUP3 SWAP1 KECCAK256 DUP1 SLOAD DUP4 MLOAD DUP2 DUP5 MUL DUP2 ADD DUP5 ADD SWAP1 SWAP5 MSTORE DUP1 DUP5 MSTORE PUSH1 0x60 SWAP4 SWAP3 DUP4 ADD DUP3 DUP3 DUP1 ISZERO PUSH2 0x7D8 JUMPI PUSH1 0x20 MUL DUP3 ADD SWAP2 SWAP1 PUSH0 MSTORE PUSH1 0x20 PUSH0 KECCAK256 SWAP1 JUMPDEST DUP2 SLOAD DUP2 MSTORE PUSH1 0x20 ADD SWAP1 PUSH1 0x1 ADD SWAP1 DUP1 DUP4 GT PUSH2 0x7C4 JUMPI JUMPDEST POP POP POP POP POP SWAP1 POP SWAP2 SWAP1 POP JUMP JUMPDEST PUSH0 PUSH1 0x4 SLOAD CALLVALUE LT ISZERO PUSH2 0x837 JUMPI PUSH1 0x40 MLOAD PUSH3 0x461BCD PUSH1 0xE5 SHL DUP2 MSTORE PUSH1 0x20 PUSH1 0x4 DUP3 ADD MSTORE PUSH1 0x1D PUSH1 0x24 DUP3 ADD MSTORE PUSH32 0x496E73756666696369656E7420726567697374726174696F6E20666565000000 PUSH1 0x44 DUP3 ADD MSTORE PUSH1 0x64 ADD PUSH2 0x479 JUMP JUMPDEST DUP5 PUSH2 0x874 JUMPI PUSH1 0x40 MLOAD PUSH3 0x461BCD PUSH1 0xE5 SHL DUP2 MSTORE PUSH1 0x20 PUSH1 0x4 DUP3 ADD MSTORE PUSH1 0xD PUSH1 0x24 DUP3 ADD MSTORE PUSH13 0x13985B59481C995C5D5A5C9959 PUSH1 0x9A SHL PUSH1 0x44 DUP3 ADD MSTORE PUSH1 0x64 ADD PUSH2 0x479 JUMP JUMPDEST PUSH0 DUP3 GT PUSH2 0x8C3 JUMPI PUSH1 0x40 MLOAD PUSH3 0x461BCD PUSH1 0xE5 SHL DUP2 MSTORE PUSH1 0x20 PUSH1 0x4 DUP3 ADD MSTORE PUSH1 0x18 PUSH1 0x24 DUP3 ADD MSTORE PUSH32 0x4D617820706F736974696F6E206D757374206265203E20300000000000000000 PUSH1 0x44 DUP3 ADD MSTORE PUSH1 0x64 ADD PUSH2 0x479 JUMP JUMPDEST PUSH1 0x40 MLOAD PUSH12 0xFFFFFFFFFFFFFFFFFFFFFFFF NOT CALLER PUSH1 0x60 SHL AND PUSH1 0x20 DUP3 ADD MSTORE PUSH1 0x34 DUP2 ADD DUP9 SWAP1 MSTORE TIMESTAMP PUSH1 0x54 DUP3 ADD MSTORE PUSH1 0x74 ADD PUSH1 0x40 DUP1 MLOAD PUSH1 0x1F NOT DUP2 DUP5 SUB ADD DUP2 MSTORE SWAP2 DUP2 MSTORE DUP2 MLOAD PUSH1 0x20 SWAP3 DUP4 ADD KECCAK256 PUSH0 DUP2 DUP2 MSTORE PUSH1 0x1 SWAP1 SWAP4 MSTORE SWAP2 KECCAK256 PUSH1 0x7 ADD SLOAD SWAP1 SWAP2 POP ISZERO PUSH2 0x95C JUMPI PUSH1 0x40 MLOAD PUSH3 0x461BCD PUSH1 0xE5 SHL DUP2 MSTORE PUSH1 0x20 PUSH1 0x4 DUP3 ADD MSTORE PUSH1 0x14 PUSH1 0x24 DUP3 ADD MSTORE PUSH20 0x4167656E7420616C726561647920657869737473 PUSH1 0x60 SHL PUSH1 0x44 DUP3 ADD MSTORE PUSH1 0x64 ADD PUSH2 0x479 JUMP JUMPDEST PUSH1 0x40 MLOAD DUP1 PUSH2 0x120 ADD PUSH1 0x40 MSTORE DUP1 CALLER PUSH1 0x1 PUSH1 0x1 PUSH1 0xA0 SHL SUB AND DUP2 MSTORE PUSH1 0x20 ADD DUP9 DUP2 MSTORE PUSH1 0x20 ADD DUP8 DUP8 DUP1 DUP1 PUSH1 0x1F ADD PUSH1 0x20 DUP1 SWAP2 DIV MUL PUSH1 0x20 ADD PUSH1 0x40 MLOAD SWAP1 DUP2 ADD PUSH1 0x40 MSTORE DUP1 SWAP4 SWAP3 SWAP2 SWAP1 DUP2 DUP2 MSTORE PUSH1 0x20 ADD DUP4 DUP4 DUP1 DUP3 DUP5 CALLDATACOPY PUSH0 SWAP3 ADD SWAP2 SWAP1 SWAP2 MSTORE POP POP POP SWAP1 DUP3 MSTORE POP PUSH1 0x40 DUP1 MLOAD PUSH1 0x20 PUSH1 0x1F DUP9 ADD DUP2 SWAP1 DIV DUP2 MUL DUP3 ADD DUP2 ADD SWAP1 SWAP3 MSTORE DUP7 DUP2 MSTORE SWAP2 DUP2 ADD SWAP2 SWAP1 DUP8 SWAP1 DUP8 SWAP1 DUP2 SWAP1 DUP5 ADD DUP4 DUP3 DUP1 DUP3 DUP5 CALLDATACOPY PUSH0 SWAP3 ADD DUP3 SWAP1 MSTORE POP SWAP4 DUP6 MSTORE POP POP POP PUSH1 0x20 DUP1 DUP4 ADD DUP7 SWAP1 MSTORE PUSH2 0x1F4 PUSH1 0x40 DUP1 DUP6 ADD SWAP2 SWAP1 SWAP2 MSTORE PUSH1 0x60 DUP5 ADD DUP4 SWAP1 MSTORE TIMESTAMP PUSH1 0x80 DUP6 ADD MSTORE PUSH1 0x1 PUSH1 0xA0 SWAP1 SWAP5 ADD DUP5 SWAP1 MSTORE DUP6 DUP4 MSTORE DUP4 DUP3 MSTORE SWAP2 DUP3 SWAP1 KECCAK256 DUP5 MLOAD DUP2 SLOAD PUSH1 0x1 PUSH1 0x1 PUSH1 0xA0 SHL SUB NOT AND PUSH1 0x1 PUSH1 0x1 PUSH1 0xA0 SHL SUB SWAP1 SWAP2 AND OR DUP2 SSTORE SWAP1 DUP5 ADD MLOAD SWAP3 DUP2 ADD SWAP3 SWAP1 SWAP3 SSTORE DUP3 ADD MLOAD PUSH1 0x2 DUP3 ADD SWAP1 PUSH2 0xA5C SWAP1 DUP3 PUSH2 0x156C JUMP JUMPDEST POP PUSH1 0x60 DUP3 ADD MLOAD PUSH1 0x3 DUP3 ADD SWAP1 PUSH2 0xA71 SWAP1 DUP3 PUSH2 0x156C JUMP JUMPDEST POP PUSH1 0x80 DUP3 ADD MLOAD PUSH1 0x4 DUP3 ADD SSTORE PUSH1 0xA0 DUP3 ADD MLOAD PUSH1 0x5 DUP1 DUP4 ADD SWAP2 SWAP1 SWAP2 SSTORE PUSH1 0xC0 DUP4 ADD MLOAD PUSH1 0x6 DUP4 ADD SSTORE PUSH1 0xE0 DUP4 ADD MLOAD PUSH1 0x7 DUP4 ADD SSTORE PUSH2 0x100 SWAP1 SWAP3 ADD MLOAD PUSH1 0x8 SWAP1 SWAP2 ADD DUP1 SLOAD PUSH1 0xFF NOT AND SWAP2 ISZERO ISZERO SWAP2 SWAP1 SWAP2 OR SWAP1 SSTORE CALLER PUSH0 SWAP1 DUP2 MSTORE PUSH1 0x2 PUSH1 0x20 SWAP1 DUP2 MSTORE PUSH1 0x40 DUP3 KECCAK256 DUP1 SLOAD PUSH1 0x1 DUP2 DUP2 ADD DUP4 SSTORE SWAP2 DUP5 MSTORE SWAP2 DUP4 KECCAK256 SWAP1 SWAP2 ADD DUP5 SWAP1 SSTORE PUSH1 0x3 DUP1 SLOAD SWAP2 DUP3 ADD DUP2 SSTORE DUP3 MSTORE PUSH32 0xC2575A0E9E593C00F959F8C92F12DB2869C3395A3B0502D05E2516446F71F85B ADD DUP4 SWAP1 SSTORE DUP2 SLOAD SWAP2 SWAP1 PUSH2 0xB1B DUP4 PUSH2 0x163C JUMP JUMPDEST SWAP2 SWAP1 POP SSTORE POP CALLER PUSH1 0x1 PUSH1 0x1 PUSH1 0xA0 SHL SUB AND DUP2 PUSH32 0x1C52BF7246BD0A1066D20D0F90D5C0FFDEF5245B6A5AF874936F12CE28FCA0B0 DUP9 DUP9 DUP9 DUP9 TIMESTAMP PUSH1 0x40 MLOAD PUSH2 0xB62 SWAP6 SWAP5 SWAP4 SWAP3 SWAP2 SWAP1 PUSH2 0x1654 JUMP JUMPDEST PUSH1 0x40 MLOAD DUP1 SWAP2 SUB SWAP1 LOG3 SWAP7 SWAP6 POP POP POP POP POP POP JUMP JUMPDEST PUSH1 0x3 DUP2 DUP2 SLOAD DUP2 LT PUSH2 0xB83 JUMPI PUSH0 DUP1 REVERT JUMPDEST PUSH0 SWAP2 DUP3 MSTORE PUSH1 0x20 SWAP1 SWAP2 KECCAK256 ADD SLOAD SWAP1 POP DUP2 JUMP JUMPDEST PUSH2 0xBE9 PUSH1 0x40 MLOAD DUP1 PUSH2 0x120 ADD PUSH1 0x40 MSTORE DUP1 PUSH0 PUSH1 0x1 PUSH1 0x1 PUSH1 0xA0 SHL SUB AND DUP2 MSTORE PUSH1 0x20 ADD PUSH0 DUP1 NOT AND DUP2 MSTORE PUSH1 0x20 ADD PUSH1 0x60 DUP2 MSTORE PUSH1 0x20 ADD PUSH1 0x60 DUP2 MSTORE PUSH1 0x20 ADD PUSH0 DUP2 MSTORE PUSH1 0x20 ADD PUSH0 DUP2 MSTORE PUSH1 0x20 ADD PUSH0 DUP2 MSTORE PUSH1 0x20 ADD PUSH0 DUP2 MSTORE PUSH1 0x20 ADD PUSH0 ISZERO ISZERO DUP2 MSTORE POP SWAP1 JUMP JUMPDEST PUSH0 DUP3 DUP2 MSTORE PUSH1 0x1 PUSH1 0x20 DUP2 DUP2 MSTORE PUSH1 0x40 SWAP3 DUP4 SWAP1 KECCAK256 DUP4 MLOAD PUSH2 0x120 DUP2 ADD DUP6 MSTORE DUP2 SLOAD PUSH1 0x1 PUSH1 0x1 PUSH1 0xA0 SHL SUB AND DUP2 MSTORE SWAP3 DUP2 ADD SLOAD SWAP2 DUP4 ADD SWAP2 SWAP1 SWAP2 MSTORE PUSH1 0x2 DUP2 ADD DUP1 SLOAD SWAP3 SWAP4 SWAP2 SWAP3 SWAP2 DUP5 ADD SWAP2 PUSH2 0xC32 SWAP1 PUSH2 0x13D1 JUMP JUMPDEST DUP1 PUSH1 0x1F ADD PUSH1 0x20 DUP1 SWAP2 DIV MUL PUSH1 0x20 ADD PUSH1 0x40 MLOAD SWAP1 DUP2 ADD PUSH1 0x40 MSTORE DUP1 SWAP3 SWAP2 SWAP1 DUP2 DUP2 MSTORE PUSH1 0x20 ADD DUP3 DUP1 SLOAD PUSH2 0xC5E SWAP1 PUSH2 0x13D1 JUMP JUMPDEST DUP1 ISZERO PUSH2 0xCA9 JUMPI DUP1 PUSH1 0x1F LT PUSH2 0xC80 JUMPI PUSH2 0x100 DUP1 DUP4 SLOAD DIV MUL DUP4 MSTORE SWAP2 PUSH1 0x20 ADD SWAP2 PUSH2 0xCA9 JUMP JUMPDEST DUP3 ADD SWAP2 SWAP1 PUSH0 MSTORE PUSH1 0x20 PUSH0 KECCAK256 SWAP1 JUMPDEST DUP2 SLOAD DUP2 MSTORE SWAP1 PUSH1 0x1 ADD SWAP1 PUSH1 0x20 ADD DUP1 DUP4 GT PUSH2 0xC8C JUMPI DUP3 SWAP1 SUB PUSH1 0x1F AND DUP3 ADD SWAP2 JUMPDEST POP POP POP POP POP DUP2 MSTORE PUSH1 0x20 ADD PUSH1 0x3 DUP3 ADD DUP1 SLOAD PUSH2 0xCC2 SWAP1 PUSH2 0x13D1 JUMP JUMPDEST DUP1 PUSH1 0x1F ADD PUSH1 0x20 DUP1 SWAP2 DIV MUL PUSH1 0x20 ADD PUSH1 0x40 MLOAD SWAP1 DUP2 ADD PUSH1 0x40 MSTORE DUP1 SWAP3 SWAP2 SWAP1 DUP2 DUP2 MSTORE PUSH1 0x20 ADD DUP3 DUP1 SLOAD PUSH2 0xCEE SWAP1 PUSH2 0x13D1 JUMP JUMPDEST DUP1 ISZERO PUSH2 0xD39 JUMPI DUP1 PUSH1 0x1F LT PUSH2 0xD10 JUMPI PUSH2 0x100 DUP1 DUP4 SLOAD DIV MUL DUP4 MSTORE SWAP2 PUSH1 0x20 ADD SWAP2 PUSH2 0xD39 JUMP JUMPDEST DUP3 ADD SWAP2 SWAP1 PUSH0 MSTORE PUSH1 0x20 PUSH0 KECCAK256 SWAP1 JUMPDEST DUP2 SLOAD DUP2 MSTORE SWAP1 PUSH1 0x1 ADD SWAP1 PUSH1 0x20 ADD DUP1 DUP4 GT PUSH2 0xD1C JUMPI DUP3 SWAP1 SUB PUSH1 0x1F AND DUP3 ADD SWAP2 JUMPDEST POP POP POP SWAP2 DUP4 MSTORE POP POP PUSH1 0x4 DUP3 ADD SLOAD PUSH1 0x20 DUP3 ADD MSTORE PUSH1 0x5 DUP3 ADD SLOAD PUSH1 0x40 DUP3 ADD MSTORE PUSH1 0x6 DUP3 ADD SLOAD PUSH1 0x60 DUP3 ADD MSTORE PUSH1 0x7 DUP3 ADD SLOAD PUSH1 0x80 DUP3 ADD MSTORE PUSH1 0x8 SWAP1 SWAP2 ADD SLOAD PUSH1 0xFF AND ISZERO ISZERO PUSH1 0xA0 SWAP1 SWAP2 ADD MSTORE SWAP3 SWAP2 POP POP JUMP JUMPDEST PUSH0 DUP2 DUP2 MSTORE PUSH1 0x1 PUSH1 0x20 MSTORE PUSH1 0x40 SWAP1 KECCAK256 DUP1 SLOAD PUSH1 0x1 PUSH1 0x1 PUSH1 0xA0 SHL SUB AND CALLER EQ PUSH2 0xDB6 JUMPI PUSH1 0x40 MLOAD PUSH3 0x461BCD PUSH1 0xE5 SHL DUP2 MSTORE PUSH1 0x4 ADD PUSH2 0x479 SWAP1 PUSH2 0x136B JUMP JUMPDEST PUSH1 0x8 DUP2 ADD DUP1 SLOAD PUSH1 0xFF NOT AND PUSH1 0x1 OR SWAP1 SSTORE PUSH1 0x40 MLOAD DUP3 SWAP1 PUSH32 0x70E5706E1150770B99ABD8A2491901177EF6C57682E51B6EAE4AEEECB1249769 SWAP1 PUSH0 SWAP1 LOG2 POP POP JUMP JUMPDEST PUSH2 0xDFB PUSH2 0xFBC JUMP JUMPDEST PUSH1 0x4 SSTORE JUMP JUMPDEST PUSH2 0xE08 PUSH2 0xFBC JUMP JUMPDEST PUSH0 DUP4 DUP2 MSTORE PUSH1 0x1 PUSH1 0x20 MSTORE PUSH1 0x40 SWAP1 KECCAK256 PUSH1 0x7 DUP2 ADD SLOAD PUSH2 0xE36 JUMPI PUSH1 0x40 MLOAD PUSH3 0x461BCD PUSH1 0xE5 SHL DUP2 MSTORE PUSH1 0x4 ADD PUSH2 0x479 SWAP1 PUSH2 0x1394 JUMP JUMPDEST DUP2 ISZERO PUSH2 0xE77 JUMPI PUSH2 0x3E8 DUP4 DUP3 PUSH1 0x5 ADD SLOAD PUSH2 0xE4F SWAP2 SWAP1 PUSH2 0x168D JUMP JUMPDEST GT PUSH2 0xE69 JUMPI DUP3 DUP2 PUSH1 0x5 ADD SLOAD PUSH2 0xE64 SWAP2 SWAP1 PUSH2 0x168D JUMP JUMPDEST PUSH2 0xE6D JUMP JUMPDEST PUSH2 0x3E8 JUMPDEST PUSH1 0x5 DUP3 ADD SSTORE PUSH2 0xE9E JUMP JUMPDEST DUP3 DUP2 PUSH1 0x5 ADD SLOAD GT PUSH2 0xE88 JUMPI PUSH0 PUSH2 0xE98 JUMP JUMPDEST DUP3 DUP2 PUSH1 0x5 ADD SLOAD PUSH2 0xE98 SWAP2 SWAP1 PUSH2 0x16A6 JUMP JUMPDEST PUSH1 0x5 DUP3 ADD SSTORE JUMPDEST DUP4 PUSH32 0x643D988938D60EB0F25F427E235470754905356536009CFF1FAF041B0E510B2E DUP3 PUSH1 0x5 ADD SLOAD PUSH1 0x40 MLOAD PUSH2 0xED4 SWAP2 DUP2 MSTORE PUSH1 0x20 ADD SWAP1 JUMP JUMPDEST PUSH1 0x40 MLOAD DUP1 SWAP2 SUB SWAP1 LOG2 POP POP POP POP JUMP JUMPDEST PUSH2 0xEEA PUSH2 0xFBC JUMP JUMPDEST PUSH0 DUP3 DUP2 MSTORE PUSH1 0x1 PUSH1 0x20 MSTORE PUSH1 0x40 SWAP1 KECCAK256 PUSH1 0x7 DUP2 ADD SLOAD PUSH2 0xF18 JUMPI PUSH1 0x40 MLOAD PUSH3 0x461BCD PUSH1 0xE5 SHL DUP2 MSTORE PUSH1 0x4 ADD PUSH2 0x479 SWAP1 PUSH2 0x1394 JUMP JUMPDEST DUP2 DUP2 PUSH1 0x6 ADD PUSH0 DUP3 DUP3 SLOAD PUSH2 0xF2B SWAP2 SWAP1 PUSH2 0x168D JUMP JUMPDEST SWAP3 POP POP DUP2 SWAP1 SSTORE POP DUP2 PUSH1 0x6 PUSH0 DUP3 DUP3 SLOAD PUSH2 0xF43 SWAP2 SWAP1 PUSH2 0x168D JUMP JUMPDEST SWAP1 SWAP2 SSTORE POP POP PUSH1 0x40 MLOAD DUP3 DUP2 MSTORE DUP4 SWAP1 PUSH32 0x14C92DC75A322EBE82BB8A5C8B717F4689A2BBBCE09E1EC0B20ACE5D6A0F67A5 SWAP1 PUSH1 0x20 ADD PUSH1 0x40 MLOAD DUP1 SWAP2 SUB SWAP1 LOG2 POP POP POP JUMP JUMPDEST PUSH2 0xF8A PUSH2 0xFBC JUMP JUMPDEST PUSH1 0x1 PUSH1 0x1 PUSH1 0xA0 SHL SUB DUP2 AND PUSH2 0xFB3 JUMPI PUSH1 0x40 MLOAD PUSH4 0x1E4FBDF7 PUSH1 0xE0 SHL DUP2 MSTORE PUSH0 PUSH1 0x4 DUP3 ADD MSTORE PUSH1 0x24 ADD PUSH2 0x479 JUMP JUMPDEST PUSH2 0x6CA DUP2 PUSH2 0xFE8 JUMP JUMPDEST PUSH0 SLOAD PUSH1 0x1 PUSH1 0x1 PUSH1 0xA0 SHL SUB AND CALLER EQ PUSH2 0x779 JUMPI PUSH1 0x40 MLOAD PUSH4 0x118CDAA7 PUSH1 0xE0 SHL DUP2 MSTORE CALLER PUSH1 0x4 DUP3 ADD MSTORE PUSH1 0x24 ADD PUSH2 0x479 JUMP JUMPDEST PUSH0 DUP1 SLOAD PUSH1 0x1 PUSH1 0x1 PUSH1 0xA0 SHL SUB DUP4 DUP2 AND PUSH1 0x1 PUSH1 0x1 PUSH1 0xA0 SHL SUB NOT DUP4 AND DUP2 OR DUP5 SSTORE PUSH1 0x40 MLOAD SWAP2 SWAP1 SWAP3 AND SWAP3 DUP4 SWAP2 PUSH32 0x8BE0079C531659141344CD1FD0A4F28419497F9722A3DAAFE3B4186F6B6457E0 SWAP2 SWAP1 LOG3 POP POP JUMP JUMPDEST PUSH1 0x20 DUP1 DUP3 MSTORE DUP3 MLOAD DUP3 DUP3 ADD DUP2 SWAP1 MSTORE PUSH0 SWAP2 SWAP1 DUP5 DUP3 ADD SWAP1 PUSH1 0x40 DUP6 ADD SWAP1 DUP5 JUMPDEST DUP2 DUP2 LT ISZERO PUSH2 0x106E JUMPI DUP4 MLOAD DUP4 MSTORE SWAP3 DUP5 ADD SWAP3 SWAP2 DUP5 ADD SWAP2 PUSH1 0x1 ADD PUSH2 0x1052 JUMP JUMPDEST POP SWAP1 SWAP7 SWAP6 POP POP POP POP POP POP JUMP JUMPDEST PUSH0 DUP1 DUP4 PUSH1 0x1F DUP5 ADD SLT PUSH2 0x108A JUMPI PUSH0 DUP1 REVERT JUMPDEST POP DUP2 CALLDATALOAD PUSH8 0xFFFFFFFFFFFFFFFF DUP2 GT ISZERO PUSH2 0x10A1 JUMPI PUSH0 DUP1 REVERT JUMPDEST PUSH1 0x20 DUP4 ADD SWAP2 POP DUP4 PUSH1 0x20 DUP3 DUP6 ADD ADD GT ISZERO PUSH2 0x10B8 JUMPI PUSH0 DUP1 REVERT JUMPDEST SWAP3 POP SWAP3 SWAP1 POP JUMP JUMPDEST PUSH0 DUP1 PUSH0 DUP1 PUSH0 DUP1 PUSH1 0x80 DUP8 DUP10 SUB SLT ISZERO PUSH2 0x10D4 JUMPI PUSH0 DUP1 REVERT JUMPDEST DUP7 CALLDATALOAD SWAP6 POP PUSH1 0x20 DUP8 ADD CALLDATALOAD PUSH8 0xFFFFFFFFFFFFFFFF DUP1 DUP3 GT ISZERO PUSH2 0x10F2 JUMPI PUSH0 DUP1 REVERT JUMPDEST PUSH2 0x10FE DUP11 DUP4 DUP12 ADD PUSH2 0x107A JUMP JUMPDEST SWAP1 SWAP8 POP SWAP6 POP PUSH1 0x40 DUP10 ADD CALLDATALOAD SWAP2 POP DUP1 DUP3 GT ISZERO PUSH2 0x1116 JUMPI PUSH0 DUP1 REVERT JUMPDEST POP PUSH2 0x1123 DUP10 DUP3 DUP11 ADD PUSH2 0x107A JUMP JUMPDEST SWAP8 SWAP11 SWAP7 SWAP10 POP SWAP5 SWAP8 SWAP5 SWAP7 SWAP6 PUSH1 0x60 SWAP1 SWAP6 ADD CALLDATALOAD SWAP5 SWAP4 POP POP POP POP JUMP JUMPDEST PUSH0 PUSH1 0x20 DUP3 DUP5 SUB SLT ISZERO PUSH2 0x114B JUMPI PUSH0 DUP1 REVERT JUMPDEST POP CALLDATALOAD SWAP2 SWAP1 POP JUMP JUMPDEST PUSH0 DUP2 MLOAD DUP1 DUP5 MSTORE PUSH0 JUMPDEST DUP2 DUP2 LT ISZERO PUSH2 0x1176 JUMPI PUSH1 0x20 DUP2 DUP6 ADD DUP2 ADD MLOAD DUP7 DUP4 ADD DUP3 ADD MSTORE ADD PUSH2 0x115A JUMP JUMPDEST POP PUSH0 PUSH1 0x20 DUP3 DUP7 ADD ADD MSTORE PUSH1 0x20 PUSH1 0x1F NOT PUSH1 0x1F DUP4 ADD AND DUP6 ADD ADD SWAP2 POP POP SWAP3 SWAP2 POP POP JUMP JUMPDEST PUSH1 0x1 PUSH1 0x1 PUSH1 0xA0 SHL SUB DUP11 AND DUP2 MSTORE PUSH1 0x20 DUP2 ADD DUP10 SWAP1 MSTORE PUSH2 0x120 PUSH1 0x40 DUP3 ADD DUP2 SWAP1 MSTORE PUSH0 SWAP1 PUSH2 0x11C0 DUP4 DUP3 ADD DUP12 PUSH2 0x1152 JUMP JUMPDEST SWAP1 POP DUP3 DUP2 SUB PUSH1 0x60 DUP5 ADD MSTORE PUSH2 0x11D4 DUP2 DUP11 PUSH2 0x1152 JUMP JUMPDEST PUSH1 0x80 DUP5 ADD SWAP9 SWAP1 SWAP9 MSTORE POP POP PUSH1 0xA0 DUP2 ADD SWAP5 SWAP1 SWAP5 MSTORE PUSH1 0xC0 DUP5 ADD SWAP3 SWAP1 SWAP3 MSTORE PUSH1 0xE0 DUP4 ADD MSTORE ISZERO ISZERO PUSH2 0x100 SWAP1 SWAP2 ADD MSTORE SWAP5 SWAP4 POP POP POP POP JUMP JUMPDEST DUP1 CALLDATALOAD PUSH1 0x1 PUSH1 0x1 PUSH1 0xA0 SHL SUB DUP2 AND DUP2 EQ PUSH2 0x121A JUMPI PUSH0 DUP1 REVERT JUMPDEST SWAP2 SWAP1 POP JUMP JUMPDEST PUSH0 DUP1 PUSH1 0x40 DUP4 DUP6 SUB SLT ISZERO PUSH2 0x1230 JUMPI PUSH0 DUP1 REVERT JUMPDEST PUSH2 0x1239 DUP4 PUSH2 0x1204 JUMP JUMPDEST SWAP5 PUSH1 0x20 SWAP4 SWAP1 SWAP4 ADD CALLDATALOAD SWAP4 POP POP POP JUMP JUMPDEST PUSH0 PUSH1 0x20 DUP3 DUP5 SUB SLT ISZERO PUSH2 0x1257 JUMPI PUSH0 DUP1 REVERT JUMPDEST PUSH2 0x1260 DUP3 PUSH2 0x1204 JUMP JUMPDEST SWAP4 SWAP3 POP POP POP JUMP JUMPDEST PUSH1 0x20 DUP2 MSTORE PUSH2 0x1281 PUSH1 0x20 DUP3 ADD DUP4 MLOAD PUSH1 0x1 PUSH1 0x1 PUSH1 0xA0 SHL SUB AND SWAP1 MSTORE JUMP JUMPDEST PUSH1 0x20 DUP3 ADD MLOAD PUSH1 0x40 DUP3 ADD MSTORE PUSH0 PUSH1 0x40 DUP4 ADD MLOAD PUSH2 0x120 DUP1 PUSH1 0x60 DUP6 ADD MSTORE PUSH2 0x12A8 PUSH2 0x140 DUP6 ADD DUP4 PUSH2 0x1152 JUMP JUMPDEST SWAP2 POP PUSH1 0x60 DUP6 ADD MLOAD PUSH1 0x1F NOT DUP6 DUP5 SUB ADD PUSH1 0x80 DUP7 ADD MSTORE PUSH2 0x12C5 DUP4 DUP3 PUSH2 0x1152 JUMP JUMPDEST SWAP3 POP POP PUSH1 0x80 DUP6 ADD MLOAD PUSH1 0xA0 DUP6 ADD MSTORE PUSH1 0xA0 DUP6 ADD MLOAD PUSH1 0xC0 DUP6 ADD MSTORE PUSH1 0xC0 DUP6 ADD MLOAD PUSH1 0xE0 DUP6 ADD MSTORE PUSH1 0xE0 DUP6 ADD MLOAD PUSH2 0x100 DUP2 DUP2 DUP8 ADD MSTORE DUP1 DUP8 ADD MLOAD SWAP2 POP POP PUSH2 0x1307 DUP3 DUP7 ADD DUP3 ISZERO ISZERO SWAP1 MSTORE JUMP JUMPDEST POP SWAP1 SWAP5 SWAP4 POP POP POP POP JUMP JUMPDEST PUSH0 DUP1 PUSH0 PUSH1 0x60 DUP5 DUP7 SUB SLT ISZERO PUSH2 0x1323 JUMPI PUSH0 DUP1 REVERT JUMPDEST DUP4 CALLDATALOAD SWAP3 POP PUSH1 0x20 DUP5 ADD CALLDATALOAD SWAP2 POP PUSH1 0x40 DUP5 ADD CALLDATALOAD DUP1 ISZERO ISZERO DUP2 EQ PUSH2 0x1340 JUMPI PUSH0 DUP1 REVERT JUMPDEST DUP1 SWAP2 POP POP SWAP3 POP SWAP3 POP SWAP3 JUMP JUMPDEST PUSH0 DUP1 PUSH1 0x40 DUP4 DUP6 SUB SLT ISZERO PUSH2 0x135C JUMPI PUSH0 DUP1 REVERT JUMPDEST POP POP DUP1 CALLDATALOAD SWAP3 PUSH1 0x20 SWAP1 SWAP2 ADD CALLDATALOAD SWAP2 POP JUMP JUMPDEST PUSH1 0x20 DUP1 DUP3 MSTORE PUSH1 0xF SWAP1 DUP3 ADD MSTORE PUSH15 0x2737BA1030B3B2B73A1037BBB732B9 PUSH1 0x89 SHL PUSH1 0x40 DUP3 ADD MSTORE PUSH1 0x60 ADD SWAP1 JUMP JUMPDEST PUSH1 0x20 DUP1 DUP3 MSTORE PUSH1 0xF SWAP1 DUP3 ADD MSTORE PUSH15 0x1059D95B9D081B9BDD08199BDD5B99 PUSH1 0x8A SHL PUSH1 0x40 DUP3 ADD MSTORE PUSH1 0x60 ADD SWAP1 JUMP JUMPDEST PUSH4 0x4E487B71 PUSH1 0xE0 SHL PUSH0 MSTORE PUSH1 0x41 PUSH1 0x4 MSTORE PUSH1 0x24 PUSH0 REVERT JUMPDEST PUSH1 0x1 DUP2 DUP2 SHR SWAP1 DUP3 AND DUP1 PUSH2 0x13E5 JUMPI PUSH1 0x7F DUP3 AND SWAP2 POP JUMPDEST PUSH1 0x20 DUP3 LT DUP2 SUB PUSH2 0x1403 JUMPI PUSH4 0x4E487B71 PUSH1 0xE0 SHL PUSH0 MSTORE PUSH1 0x22 PUSH1 0x4 MSTORE PUSH1 0x24 PUSH0 REVERT JUMPDEST POP SWAP2 SWAP1 POP JUMP JUMPDEST PUSH1 0x1F DUP3 GT ISZERO PUSH2 0x1452 JUMPI PUSH0 DUP2 DUP2 MSTORE PUSH1 0x20 DUP2 KECCAK256 PUSH1 0x1F DUP6 ADD PUSH1 0x5 SHR DUP2 ADD PUSH1 0x20 DUP7 LT ISZERO PUSH2 0x142F JUMPI POP DUP1 JUMPDEST PUSH1 0x1F DUP6 ADD PUSH1 0x5 SHR DUP3 ADD SWAP2 POP JUMPDEST DUP2 DUP2 LT ISZERO PUSH2 0x144E JUMPI DUP3 DUP2 SSTORE PUSH1 0x1 ADD PUSH2 0x143B JUMP JUMPDEST POP POP POP JUMPDEST POP POP POP JUMP JUMPDEST PUSH8 0xFFFFFFFFFFFFFFFF DUP4 GT ISZERO PUSH2 0x146F JUMPI PUSH2 0x146F PUSH2 0x13BD JUMP JUMPDEST PUSH2 0x1483 DUP4 PUSH2 0x147D DUP4 SLOAD PUSH2 0x13D1 JUMP JUMPDEST DUP4 PUSH2 0x1409 JUMP JUMPDEST PUSH0 PUSH1 0x1F DUP5 GT PUSH1 0x1 DUP2 EQ PUSH2 0x14B4 JUMPI PUSH0 DUP6 ISZERO PUSH2 0x149D JUMPI POP DUP4 DUP3 ADD CALLDATALOAD JUMPDEST PUSH0 NOT PUSH1 0x3 DUP8 SWAP1 SHL SHR NOT AND PUSH1 0x1 DUP7 SWAP1 SHL OR DUP4 SSTORE PUSH2 0x150C JUMP JUMPDEST PUSH0 DUP4 DUP2 MSTORE PUSH1 0x20 SWAP1 KECCAK256 PUSH1 0x1F NOT DUP7 AND SWAP1 DUP4 JUMPDEST DUP3 DUP2 LT ISZERO PUSH2 0x14E4 JUMPI DUP7 DUP6 ADD CALLDATALOAD DUP3 SSTORE PUSH1 0x20 SWAP5 DUP6 ADD SWAP5 PUSH1 0x1 SWAP1 SWAP3 ADD SWAP2 ADD PUSH2 0x14C4 JUMP JUMPDEST POP DUP7 DUP3 LT ISZERO PUSH2 0x1500 JUMPI PUSH0 NOT PUSH1 0xF8 DUP9 PUSH1 0x3 SHL AND SHR NOT DUP5 DUP8 ADD CALLDATALOAD AND DUP2 SSTORE JUMPDEST POP POP PUSH1 0x1 DUP6 PUSH1 0x1 SHL ADD DUP4 SSTORE JUMPDEST POP POP POP POP POP JUMP JUMPDEST DUP2 DUP4 MSTORE DUP2 DUP2 PUSH1 0x20 DUP6 ADD CALLDATACOPY POP PUSH0 DUP3 DUP3 ADD PUSH1 0x20 SWAP1 DUP2 ADD SWAP2 SWAP1 SWAP2 MSTORE PUSH1 0x1F SWAP1 SWAP2 ADD PUSH1 0x1F NOT AND SWAP1 SWAP2 ADD ADD SWAP1 JUMP JUMPDEST PUSH1 0x40 DUP2 MSTORE PUSH0 PUSH2 0x154E PUSH1 0x40 DUP4 ADD DUP7 DUP9 PUSH2 0x1513 JUMP JUMPDEST DUP3 DUP2 SUB PUSH1 0x20 DUP5 ADD MSTORE PUSH2 0x1561 DUP2 DUP6 DUP8 PUSH2 0x1513 JUMP JUMPDEST SWAP8 SWAP7 POP POP POP POP POP POP POP JUMP JUMPDEST DUP2 MLOAD PUSH8 0xFFFFFFFFFFFFFFFF DUP2 GT ISZERO PUSH2 0x1586 JUMPI PUSH2 0x1586 PUSH2 0x13BD JUMP JUMPDEST PUSH2 0x159A DUP2 PUSH2 0x1594 DUP5 SLOAD PUSH2 0x13D1 JUMP JUMPDEST DUP5 PUSH2 0x1409 JUMP JUMPDEST PUSH1 0x20 DUP1 PUSH1 0x1F DUP4 GT PUSH1 0x1 DUP2 EQ PUSH2 0x15CD JUMPI PUSH0 DUP5 ISZERO PUSH2 0x15B6 JUMPI POP DUP6 DUP4 ADD MLOAD JUMPDEST PUSH0 NOT PUSH1 0x3 DUP7 SWAP1 SHL SHR NOT AND PUSH1 0x1 DUP6 SWAP1 SHL OR DUP6 SSTORE PUSH2 0x144E JUMP JUMPDEST PUSH0 DUP6 DUP2 MSTORE PUSH1 0x20 DUP2 KECCAK256 PUSH1 0x1F NOT DUP7 AND SWAP2 JUMPDEST DUP3 DUP2 LT ISZERO PUSH2 0x15FB JUMPI DUP9 DUP7 ADD MLOAD DUP3 SSTORE SWAP5 DUP5 ADD SWAP5 PUSH1 0x1 SWAP1 SWAP2 ADD SWAP1 DUP5 ADD PUSH2 0x15DC JUMP JUMPDEST POP DUP6 DUP3 LT ISZERO PUSH2 0x1618 JUMPI DUP8 DUP6 ADD MLOAD PUSH0 NOT PUSH1 0x3 DUP9 SWAP1 SHL PUSH1 0xF8 AND SHR NOT AND DUP2 SSTORE JUMPDEST POP POP POP POP POP PUSH1 0x1 SWAP1 DUP2 SHL ADD SWAP1 SSTORE POP JUMP JUMPDEST PUSH4 0x4E487B71 PUSH1 0xE0 SHL PUSH0 MSTORE PUSH1 0x11 PUSH1 0x4 MSTORE PUSH1 0x24 PUSH0 REVERT JUMPDEST PUSH0 PUSH1 0x1 DUP3 ADD PUSH2 0x164D JUMPI PUSH2 0x164D PUSH2 0x1628 JUMP JUMPDEST POP PUSH1 0x1 ADD SWAP1 JUMP JUMPDEST PUSH1 0x60 DUP2 MSTORE PUSH0 PUSH2 0x1667 PUSH1 0x60 DUP4 ADD DUP8 DUP10 PUSH2 0x1513 JUMP JUMPDEST DUP3 DUP2 SUB PUSH1 0x20 DUP5 ADD MSTORE PUSH2 0x167A DUP2 DUP7 DUP9 PUSH2 0x1513 JUMP JUMPDEST SWAP2 POP POP DUP3 PUSH1 0x40 DUP4 ADD MSTORE SWAP7 SWAP6 POP POP POP POP POP POP JUMP JUMPDEST DUP1 DUP3 ADD DUP1 DUP3 GT ISZERO PUSH2 0x16A0 JUMPI PUSH2 0x16A0 PUSH2 0x1628 JUMP JUMPDEST SWAP3 SWAP2 POP POP JUMP JUMPDEST DUP2 DUP2 SUB DUP2 DUP2 GT ISZERO PUSH2 0x16A0 JUMPI PUSH2 0x16A0 PUSH2 0x1628 JUMP INVALID LOG2 PUSH5 0x6970667358 0x22 SLT KECCAK256 NOT PUSH1 0xC9 SLT RETURNDATASIZE LOG3 PUSH32 0x8285127C2A3C3F3C05DFAE1066F41EF6C5BF331B816E795B7164736F6C634300 ADDMOD EQ STOP CALLER "},"methodIdentifiers":{"activateAgent(bytes32)":"b015813b","agents(bytes32)":"2e20ee18","allAgentIds(uint256)":"98be7c8d","deactivateAgent(bytes32)":"59b5acf3","getAgent(bytes32)":"a6c2af01","getAgentCount()":"91cab63e","getAllAgentIds()":"1136a595","getOwnerAgentCount(address)":"8fbcd1c9","getOwnerAgents(address)":"7585840a","owner()":"8da5cb5b","ownerAgents(address,uint256)":"62febe4f","recordEarnings(bytes32,uint256)":"e1bf2237","registerAgent(bytes32,string,string,uint256)":"97d3d329","registrationFee()":"14c44e09","renounceOwnership()":"715018a6","setRegistrationFee(uint256)":"c320c727","totalAgents()":"c5053712","totalValueManaged()":"545878b8","transferOwnership(address)":"f2fde38b","updateAgent(bytes32,string,string,uint256)":"177207db","updateReputation(bytes32,uint256,bool)":"d72b6568","withdraw()":"3ccfd60b"}}}}}