{
  "_format": "hh3-artifact-1",
  "contractName": "CommitReveal",
  "sourceName": "contracts/CommitReveal.sol",
  "abi": [
    {
      "inputs": [],
      "stateMutability": "nonpayable",
      "type": "constructor"
    },
    {
      "inputs": [
        {
          "internalType": "address",
          "name": "owner",
          "type": "address"
        }
      ],
      "name": "OwnableInvalidOwner",
      "type": "error"
    },
    {
      "inputs": [
        {
          "internalType": "address",
          "name": "account",
          "type": "address"
        }
      ],
      "name": "OwnableUnauthorizedAccount",
      "type": "error"
    },
    {
      "anonymous": false,
      "inputs": [
        {
          "indexed": true,
          "internalType": "bytes32",
          "name": "commitId",
          "type": "bytes32"
        },
        {
          "indexed": true,
          "internalType": "bytes32",
          "name": "agentId",
          "type": "bytes32"
        },
        {
          "indexed": false,
          "internalType": "bytes32",
          "name": "commitHash",
          "type": "bytes32"
        },
        {
          "indexed": false,
          "internalType": "uint256",
          "name": "commitBlock",
          "type": "uint256"
        }
      ],
      "name": "ActionCommitted",
      "type": "event"
    },
    {
      "anonymous": false,
      "inputs": [
        {
          "indexed": true,
          "internalType": "bytes32",
          "name": "commitId",
          "type": "bytes32"
        },
        {
          "indexed": true,
          "internalType": "bytes32",
          "name": "agentId",
          "type": "bytes32"
        }
      ],
      "name": "ActionExecuted",
      "type": "event"
    },
    {
      "anonymous": false,
      "inputs": [
        {
          "indexed": true,
          "internalType": "bytes32",
          "name": "commitId",
          "type": "bytes32"
        },
        {
          "indexed": true,
          "internalType": "bytes32",
          "name": "agentId",
          "type": "bytes32"
        },
        {
          "indexed": false,
          "internalType": "string",
          "name": "action",
          "type": "string"
        },
        {
          "indexed": false,
          "internalType": "string",
          "name": "protocol",
          "type": "string"
        },
        {
          "indexed": false,
          "internalType": "uint256",
          "name": "amount",
          "type": "uint256"
        }
      ],
      "name": "ActionRevealed",
      "type": "event"
    },
    {
      "anonymous": false,
      "inputs": [
        {
          "indexed": true,
          "internalType": "address",
          "name": "previousOwner",
          "type": "address"
        },
        {
          "indexed": true,
          "internalType": "address",
          "name": "newOwner",
          "type": "address"
        }
      ],
      "name": "OwnershipTransferred",
      "type": "event"
    },
    {
      "inputs": [
        {
          "internalType": "bytes32",
          "name": "",
          "type": "bytes32"
        },
        {
          "internalType": "uint256",
          "name": "",
          "type": "uint256"
        }
      ],
      "name": "agentCommitments",
      "outputs": [
        {
          "internalType": "bytes32",
          "name": "",
          "type": "bytes32"
        }
      ],
      "stateMutability": "view",
      "type": "function"
    },
    {
      "inputs": [
        {
          "internalType": "uint256",
          "name": "",
          "type": "uint256"
        }
      ],
      "name": "allCommitIds",
      "outputs": [
        {
          "internalType": "bytes32",
          "name": "",
          "type": "bytes32"
        }
      ],
      "stateMutability": "view",
      "type": "function"
    },
    {
      "inputs": [
        {
          "internalType": "bytes32",
          "name": "commitId",
          "type": "bytes32"
        }
      ],
      "name": "blocksUntilReveal",
      "outputs": [
        {
          "internalType": "uint256",
          "name": "",
          "type": "uint256"
        }
      ],
      "stateMutability": "view",
      "type": "function"
    },
    {
      "inputs": [
        {
          "internalType": "bytes32",
          "name": "commitId",
          "type": "bytes32"
        }
      ],
      "name": "canReveal",
      "outputs": [
        {
          "internalType": "bool",
          "name": "",
          "type": "bool"
        }
      ],
      "stateMutability": "view",
      "type": "function"
    },
    {
      "inputs": [
        {
          "internalType": "bytes32",
          "name": "agentId",
          "type": "bytes32"
        },
        {
          "internalType": "bytes32",
          "name": "commitHash",
          "type": "bytes32"
        }
      ],
      "name": "commit",
      "outputs": [
        {
          "internalType": "bytes32",
          "name": "commitId",
          "type": "bytes32"
        }
      ],
      "stateMutability": "nonpayable",
      "type": "function"
    },
    {
      "inputs": [],
      "name": "commitWindow",
      "outputs": [
        {
          "internalType": "uint256",
          "name": "",
          "type": "uint256"
        }
      ],
      "stateMutability": "view",
      "type": "function"
    },
    {
      "inputs": [
        {
          "internalType": "bytes32",
          "name": "",
          "type": "bytes32"
        }
      ],
      "name": "commitments",
      "outputs": [
        {
          "internalType": "bytes32",
          "name": "agentId",
          "type": "bytes32"
        },
        {
          "internalType": "address",
          "name": "committer",
          "type": "address"
        },
        {
          "internalType": "bytes32",
          "name": "commitHash",
          "type": "bytes32"
        },
        {
          "internalType": "uint256",
          "name": "commitBlock",
          "type": "uint256"
        },
        {
          "internalType": "uint256",
          "name": "revealedBlock",
          "type": "uint256"
        },
        {
          "internalType": "string",
          "name": "action",
          "type": "string"
        },
        {
          "internalType": "string",
          "name": "protocol",
          "type": "string"
        },
        {
          "internalType": "uint256",
          "name": "amount",
          "type": "uint256"
        },
        {
          "internalType": "bool",
          "name": "revealed",
          "type": "bool"
        },
        {
          "internalType": "bool",
          "name": "executed",
          "type": "bool"
        }
      ],
      "stateMutability": "view",
      "type": "function"
    },
    {
      "inputs": [
        {
          "internalType": "bytes32",
          "name": "agentId",
          "type": "bytes32"
        }
      ],
      "name": "getAgentCommitments",
      "outputs": [
        {
          "internalType": "bytes32[]",
          "name": "",
          "type": "bytes32[]"
        }
      ],
      "stateMutability": "view",
      "type": "function"
    },
    {
      "inputs": [],
      "name": "getAllCommitIds",
      "outputs": [
        {
          "internalType": "bytes32[]",
          "name": "",
          "type": "bytes32[]"
        }
      ],
      "stateMutability": "view",
      "type": "function"
    },
    {
      "inputs": [
        {
          "internalType": "bytes32",
          "name": "commitId",
          "type": "bytes32"
        }
      ],
      "name": "getCommitment",
      "outputs": [
        {
          "components": [
            {
              "internalType": "bytes32",
              "name": "agentId",
              "type": "bytes32"
            },
            {
              "internalType": "address",
              "name": "committer",
              "type": "address"
            },
            {
              "internalType": "bytes32",
              "name": "commitHash",
              "type": "bytes32"
            },
            {
              "internalType": "uint256",
              "name": "commitBlock",
              "type": "uint256"
            },
            {
              "internalType": "uint256",
              "name": "revealedBlock",
              "type": "uint256"
            },
            {
              "internalType": "string",
              "name": "action",
              "type": "string"
            },
            {
              "internalType": "string",
              "name": "protocol",
              "type": "string"
            },
            {
              "internalType": "uint256",
              "name": "amount",
              "type": "uint256"
            },
            {
              "internalType": "bool",
              "name": "revealed",
              "type": "bool"
            },
            {
              "internalType": "bool",
              "name": "executed",
              "type": "bool"
            }
          ],
          "internalType": "struct CommitReveal.Commitment",
          "name": "",
          "type": "tuple"
        }
      ],
      "stateMutability": "view",
      "type": "function"
    },
    {
      "inputs": [],
      "name": "getStats",
      "outputs": [
        {
          "internalType": "uint256",
          "name": "",
          "type": "uint256"
        },
        {
          "internalType": "uint256",
          "name": "",
          "type": "uint256"
        },
        {
          "internalType": "uint256",
          "name": "",
          "type": "uint256"
        }
      ],
      "stateMutability": "view",
      "type": "function"
    },
    {
      "inputs": [
        {
          "internalType": "bytes32",
          "name": "commitId",
          "type": "bytes32"
        }
      ],
      "name": "markExecuted",
      "outputs": [],
      "stateMutability": "nonpayable",
      "type": "function"
    },
    {
      "inputs": [],
      "name": "owner",
      "outputs": [
        {
          "internalType": "address",
          "name": "",
          "type": "address"
        }
      ],
      "stateMutability": "view",
      "type": "function"
    },
    {
      "inputs": [],
      "name": "renounceOwnership",
      "outputs": [],
      "stateMutability": "nonpayable",
      "type": "function"
    },
    {
      "inputs": [
        {
          "internalType": "bytes32",
          "name": "commitId",
          "type": "bytes32"
        },
        {
          "internalType": "string",
          "name": "action",
          "type": "string"
        },
        {
          "internalType": "string",
          "name": "protocol",
          "type": "string"
        },
        {
          "internalType": "uint256",
          "name": "amount",
          "type": "uint256"
        },
        {
          "internalType": "bytes32",
          "name": "salt",
          "type": "bytes32"
        }
      ],
      "name": "reveal",
      "outputs": [],
      "stateMutability": "nonpayable",
      "type": "function"
    },
    {
      "inputs": [
        {
          "internalType": "uint256",
          "name": "blocks",
          "type": "uint256"
        }
      ],
      "name": "setCommitWindow",
      "outputs": [],
      "stateMutability": "nonpayable",
      "type": "function"
    },
    {
      "inputs": [],
      "name": "totalCommits",
      "outputs": [
        {
          "internalType": "uint256",
          "name": "",
          "type": "uint256"
        }
      ],
      "stateMutability": "view",
      "type": "function"
    },
    {
      "inputs": [],
      "name": "totalExecutions",
      "outputs": [
        {
          "internalType": "uint256",
          "name": "",
          "type": "uint256"
        }
      ],
      "stateMutability": "view",
      "type": "function"
    },
    {
      "inputs": [],
      "name": "totalReveals",
      "outputs": [
        {
          "internalType": "uint256",
          "name": "",
          "type": "uint256"
        }
      ],
      "stateMutability": "view",
      "type": "function"
    },
    {
      "inputs": [
        {
          "internalType": "address",
          "name": "newOwner",
          "type": "address"
        }
      ],
      "name": "transferOwnership",
      "outputs": [],
      "stateMutability": "nonpayable",
      "type": "function"
    }
  ],
  "bytecode": "0x60806040526005600155348015610014575f80fd5b50338061003a57604051631e4fbdf760e01b81525f600482015260240160405180910390fd5b61004381610049565b50610098565b5f80546001600160a01b038381166001600160a01b0319831681178455604051919092169283917f8be0079c531659141344cd1fd0a4f28419497f9722a3daafe3b4186f6b6457e09190a35050565b61140f806100a55f395ff3fe608060405234801561000f575f80fd5b5060043610610127575f3560e01c80637795820c116100a9578063b175e4ff1161006e578063b175e4ff1461025a578063c59d48471461026d578063e3ce094d14610291578063ed186582146102a4578063f2fde38b146102c7575f80fd5b80637795820c146101d1578063839df945146101f15780638da5cb5b1461021a5780639e10a16e14610234578063a474490d14610247575f80fd5b806350ffdb1d116100ef57806350ffdb1d14610187578063628e0ef01461019a578063642f7d5e146101ad578063665d4c61146101b6578063715018a6146101c9575f80fd5b806312524e511461012b5780631dfe76c314610149578063406990051461016057806344d6ee2b146101695780634e2718f314610172575b5f80fd5b6101336102da565b6040516101409190610e19565b60405180910390f35b61015260065481565b604051908152602001610140565b61015260015481565b61015260055481565b610185610180366004610e5c565b610330565b005b610152610195366004610e5c565b61033d565b6101526101a8366004610e73565b61035c565b61015260075481565b6101856101c4366004610e5c565b610387565b61018561048a565b6101e46101df366004610e5c565b61049d565b6040516101409190610ed6565b6102046101ff366004610e5c565b610693565b6040516101409a99989796959493929190610f8d565b5f546040516001600160a01b039091168152602001610140565b610133610242366004610e5c565b6107ff565b610185610255366004611046565b61085e565b610152610268366004610e5c565b610ac4565b60055460065460075460408051938452602084019290925290820152606001610140565b61015261029f366004610e73565b610b2a565b6102b76102b2366004610e5c565b610d18565b6040519015158152602001610140565b6101856102d53660046110c8565b610d61565b6060600480548060200260200160405190810160405280929190818152602001828054801561032657602002820191905f5260205f20905b815481526020019060010190808311610312575b5050505050905090565b610338610d9e565b600155565b6004818154811061034c575f80fd5b5f91825260209091200154905081565b6003602052815f5260405f208181548110610375575f80fd5b905f5260205f20015f91509150505481565b61038f610d9e565b5f818152600260205260409020600881015460ff166103e85760405162461bcd60e51b815260206004820152601060248201526f139bdd081e595d081c995d99585b195960821b60448201526064015b60405180910390fd5b6008810154610100900460ff16156104355760405162461bcd60e51b815260206004820152601060248201526f105b1c9958591e48195e1958dd5d195960821b60448201526064016103df565b60088101805461ff00191661010017905560078054905f61045583611102565b9091555050805460405183907f1853ab846accb7f1db41196ead1885aa02a89aeb9f958916dad3d34c70d5c27d905f90a35050565b610492610d9e565b61049b5f610dca565b565b60408051610140810182525f8082526020820181905291810182905260608082018390526080820183905260a0820181905260c082015260e0810182905261010081018290526101208101919091525f828152600260208181526040928390208351610140810185528154815260018201546001600160a01b0316928101929092529182015492810192909252600381015460608301526004810154608083015260058101805460a0840191906105539061111a565b80601f016020809104026020016040519081016040528092919081815260200182805461057f9061111a565b80156105ca5780601f106105a1576101008083540402835291602001916105ca565b820191905f5260205f20905b8154815290600101906020018083116105ad57829003601f168201915b505050505081526020016006820180546105e39061111a565b80601f016020809104026020016040519081016040528092919081815260200182805461060f9061111a565b801561065a5780601f106106315761010080835404028352916020019161065a565b820191905f5260205f20905b81548152906001019060200180831161063d57829003601f168201915b50505091835250506007820154602082015260089091015460ff8082161515604084015261010090910416151560609091015292915050565b600260208190525f918252604090912080546001820154928201546003830154600484015460058501805494966001600160a01b0316959394929391926106d99061111a565b80601f01602080910402602001604051908101604052809291908181526020018280546107059061111a565b80156107505780601f1061072757610100808354040283529160200191610750565b820191905f5260205f20905b81548152906001019060200180831161073357829003601f168201915b5050505050908060060180546107659061111a565b80601f01602080910402602001604051908101604052809291908181526020018280546107919061111a565b80156107dc5780601f106107b3576101008083540402835291602001916107dc565b820191905f5260205f20905b8154815290600101906020018083116107bf57829003601f168201915b50505050600783015460089093015491929160ff8082169250610100909104168a565b5f8181526003602090815260409182902080548351818402810184019094528084526060939283018282801561085257602002820191905f5260205f20905b81548152602001906001019080831161083e575b50505050509050919050565b5f87815260026020526040902060038101546108b35760405162461bcd60e51b815260206004820152601460248201527310dbdb5b5a5d1b595b9d081b9bdd08199bdd5b9960621b60448201526064016103df565b60018101546001600160a01b031633146108ff5760405162461bcd60e51b815260206004820152600d60248201526c2737ba1031b7b6b6b4ba3a32b960991b60448201526064016103df565b600881015460ff16156109475760405162461bcd60e51b815260206004820152601060248201526f105b1c9958591e481c995d99585b195960821b60448201526064016103df565b60015481600301546109599190611152565b43101561099e5760405162461bcd60e51b8152602060048201526013602482015272151bdbc819585c9b1e481d1bc81c995d99585b606a1b60448201526064016103df565b5f8787878787876040516020016109ba96959493929190611165565b60405160208183030381529060405280519060200120905081600201548114610a255760405162461bcd60e51b815260206004820152601e60248201527f48617368206d69736d61746368202d20696e76616c69642072657665616c000060448201526064016103df565b60088201805460ff1916600117905543600483015560058201610a49888a836111ed565b5060068201610a598688836111ed565b506007820184905560068054905f610a7083611102565b9190505550815f0154897fd10e7039f56e4e8f2075656dfffd33fe1407378b03b6d52e5eafd5f5b97722cf8a8a8a8a8a604051610ab19594939291906112d1565b60405180910390a3505050505050505050565b5f81815260026020526040812060038101541580610ae65750600881015460ff165b15610af357505f92915050565b5f6001548260030154610b069190611152565b9050804310610b1857505f9392505050565b610b22438261130a565b949350505050565b60408051602081018490529081018290524360608201525f9060800160408051808303601f190181528282528051602091820120610140840183528684523382850190815284840187815243606087019081525f608088018181528751808801895282815260a08a0190815288518089018a5283815260c08b015260e08a018390526101008a018390526101208a01839052868352600297889052979091208851815593516001850180546001600160a01b0319166001600160a01b0390921691909117905591519483019490945592516003820155915160048301559151919350906005820190610c1c908261131d565b5060c08201516006820190610c31908261131d565b5060e0820151600782015561010080830151600890920180546101209094015161ffff1990941692151561ff00191692909217921515029190911790555f838152600360209081526040822080546001818101835591845291832090910183905560048054918201815582527f8a35acfbc15ff81a39ae7d344fd709f28e8600b4aa8c65c6b64bfe7fe36bd19b018290556005805491610cd083611102565b909155505060408051838152436020820152849183917fb8d10bba5bd4d437fff02bbd57298ec1d6acb6d92a5b0af274e43a5d5df3d757910160405180910390a35b92915050565b5f818152600260205260408120600381015415801590610d3d5750600881015460ff16155b8015610d5a57506001548160030154610d569190611152565b4310155b9392505050565b610d69610d9e565b6001600160a01b038116610d9257604051631e4fbdf760e01b81525f60048201526024016103df565b610d9b81610dca565b50565b5f546001600160a01b0316331461049b5760405163118cdaa760e01b81523360048201526024016103df565b5f80546001600160a01b038381166001600160a01b0319831681178455604051919092169283917f8be0079c531659141344cd1fd0a4f28419497f9722a3daafe3b4186f6b6457e09190a35050565b602080825282518282018190525f9190848201906040850190845b81811015610e5057835183529284019291840191600101610e34565b50909695505050505050565b5f60208284031215610e6c575f80fd5b5035919050565b5f8060408385031215610e84575f80fd5b50508035926020909101359150565b5f81518084525f5b81811015610eb757602081850181015186830182015201610e9b565b505f602082860101526020601f19601f83011685010191505092915050565b60208152815160208201525f6020830151610efc60408401826001600160a01b03169052565b506040830151606083015260608301516080830152608083015160a083015260a08301516101408060c0850152610f37610160850183610e93565b915060c0850151601f198584030160e0860152610f548382610e93565b92505060e0850151610100818187015280870151915050610120610f7b8187018315159052565b90950151151593019290925250919050565b5f6101408c835260018060a01b038c1660208401528a60408401528960608401528860808401528060a0840152610fc681840189610e93565b905082810360c0840152610fda8188610e93565b60e08401969096525050911515610100830152151561012090910152979650505050505050565b5f8083601f840112611011575f80fd5b50813567ffffffffffffffff811115611028575f80fd5b60208301915083602082850101111561103f575f80fd5b9250929050565b5f805f805f805f60a0888a03121561105c575f80fd5b87359650602088013567ffffffffffffffff8082111561107a575f80fd5b6110868b838c01611001565b909850965060408a013591508082111561109e575f80fd5b506110ab8a828b01611001565b989b979a5095989597966060870135966080013595509350505050565b5f602082840312156110d8575f80fd5b81356001600160a01b0381168114610d5a575f80fd5b634e487b7160e01b5f52601160045260245ffd5b5f60018201611113576111136110ee565b5060010190565b600181811c9082168061112e57607f821691505b60208210810361114c57634e487b7160e01b5f52602260045260245ffd5b50919050565b80820180821115610d1257610d126110ee565b858782375f8682015f815285878237909401928352506020820152604001949350505050565b634e487b7160e01b5f52604160045260245ffd5b601f8211156111e8575f81815260208120601f850160051c810160208610156111c55750805b601f850160051c820191505b818110156111e4578281556001016111d1565b5050505b505050565b67ffffffffffffffff8311156112055761120561118b565b61121983611213835461111a565b8361119f565b5f601f84116001811461124a575f85156112335750838201355b5f19600387901b1c1916600186901b1783556112a2565b5f83815260209020601f19861690835b8281101561127a578685013582556020948501946001909201910161125a565b5086821015611296575f1960f88860031b161c19848701351681555b505060018560011b0183555b5050505050565b81835281816020850137505f828201602090810191909152601f909101601f19169091010190565b606081525f6112e46060830187896112a9565b82810360208401526112f78186886112a9565b9150508260408301529695505050505050565b81810381811115610d1257610d126110ee565b815167ffffffffffffffff8111156113375761133761118b565b61134b81611345845461111a565b8461119f565b602080601f83116001811461137e575f84156113675750858301515b5f19600386901b1c1916600185901b1785556111e4565b5f85815260208120601f198616915b828110156113ac5788860151825594840194600190910190840161138d565b50858210156113c957878501515f19600388901b60f8161c191681555b5050505050600190811b0190555056fea26469706673582212200ef3df5a06206272a5e3eb00afa96aba3f6b382e0ab984bd4d860215b8ba98b264736f6c63430008140033",
  "linkReferences": {},
  "deployedLinkReferences": {},
  "immutableReferences": {},
  "inputSourceName": "project/contracts/CommitReveal.sol",
  "buildInfoId": "solc-0_8_20-24a884a7bf42eafb666f7ee2001191d84d779d5b"
}